{"abi":[{"inputs":[{"internalType":"uint256","name":"_amount","type":"uint256"},{"internalType":"address","name":"_receiver","type":"address"}],"name":"createTransaction","outputs":[],"stateMutability":"payable","type":"function"},{"inputs":[{"internalType":"uint256","name":"","type":"uint256"}],"name":"deployedTransactions","outputs":[{"internalType":"address","name":"","type":"address"}],"stateMutability":"view","type":"function"},{"inputs":[],"name":"getDeployedTransactions","outputs":[{"internalType":"address[]","name":"","type":"address[]"}],"stateMutability":"view","type":"function"}],"devdoc":{"kind":"dev","methods":{},"version":1},"evm":{"assembly":"    /* \"Transaction.sol\":61:722  contract TransactionFactory {... */\n  mstore(0x40, 0x80)\n  callvalue\n  dup1\n  iszero\n  tag_1\n  jumpi\n  0x00\n  dup1\n  revert\ntag_1:\n  pop\n  dataSize(sub_0)\n  dup1\n  dataOffset(sub_0)\n  0x00\n  codecopy\n  0x00\n  return\nstop\n\nsub_0: assembly {\n        /* \"Transaction.sol\":61:722  contract TransactionFactory {... */\n      mstore(0x40, 0x80)\n      jumpi(tag_1, lt(calldatasize, 0x04))\n      shr(0xe0, calldataload(0x00))\n      dup1\n      0x7cf4c543\n      eq\n      tag_2\n      jumpi\n      dup1\n      0xe17036f4\n      eq\n      tag_3\n      jumpi\n      dup1\n      0xf4d79e6c\n      eq\n      tag_4\n      jumpi\n    tag_1:\n      0x00\n      dup1\n      revert\n        /* \"Transaction.sol\":142:591  function createTransaction(uint _amount, address _receiver) public payable {... */\n    tag_2:\n      tag_5\n      0x04\n      dup1\n      calldatasize\n      sub\n      dup2\n      add\n      swap1\n      tag_6\n      swap2\n      swap1\n      tag_7\n      jump\t// in\n    tag_6:\n      tag_8\n      jump\t// in\n    tag_5:\n      stop\n        /* \"Transaction.sol\":96:133  address[] public deployedTransactions */\n    tag_3:\n      callvalue\n      dup1\n      iszero\n      tag_9\n      jumpi\n      0x00\n      dup1\n      revert\n    tag_9:\n      pop\n      tag_10\n      0x04\n      dup1\n      calldatasize\n      sub\n      dup2\n      add\n      swap1\n      tag_11\n      swap2\n      swap1\n      tag_12\n      jump\t// in\n    tag_11:\n      tag_13\n      jump\t// in\n    tag_10:\n      mload(0x40)\n      tag_14\n      swap2\n      swap1\n      tag_15\n      jump\t// in\n    tag_14:\n      mload(0x40)\n      dup1\n      swap2\n      sub\n      swap1\n      return\n        /* \"Transaction.sol\":599:719  function getDeployedTransactions() public view returns (address[] memory) {... */\n    tag_4:\n      callvalue\n      dup1\n      iszero\n      tag_16\n      jumpi\n      0x00\n      dup1\n      revert\n    tag_16:\n      pop\n      tag_17\n      tag_18\n      jump\t// in\n    tag_17:\n      mload(0x40)\n      tag_19\n      swap2\n      swap1\n      tag_20\n      jump\t// in\n    tag_19:\n      mload(0x40)\n      dup1\n      swap2\n      sub\n      swap1\n      return\n        /* \"Transaction.sol\":142:591  function createTransaction(uint _amount, address _receiver) public payable {... */\n    tag_8:\n        /* \"Transaction.sol\":246:247  0 */\n      0x00\n        /* \"Transaction.sol\":236:243  _amount */\n      dup3\n        /* \"Transaction.sol\":236:247  _amount > 0 */\n      gt\n        /* \"Transaction.sol\":228:281  require(_amount > 0, \"Amount must be greater than 0\") */\n      tag_22\n      jumpi\n      mload(0x40)\n      0x08c379a000000000000000000000000000000000000000000000000000000000\n      dup2\n      mstore\n      0x04\n      add\n      tag_23\n      swap1\n      tag_24\n      jump\t// in\n    tag_23:\n      mload(0x40)\n      dup1\n      swap2\n      sub\n      swap1\n      revert\n    tag_22:\n        /* \"Transaction.sol\":313:320  _amount */\n      dup2\n        /* \"Transaction.sol\":300:309  msg.value */\n      callvalue\n        /* \"Transaction.sol\":300:320  msg.value >= _amount */\n      lt\n      iszero\n        /* \"Transaction.sol\":292:348  require(msg.value >= _amount, \"Insufficient Ether sent\") */\n      tag_25\n      jumpi\n      mload(0x40)\n      0x08c379a000000000000000000000000000000000000000000000000000000000\n      dup2\n      mstore\n      0x04\n      add\n      tag_26\n      swap1\n      tag_27\n      jump\t// in\n    tag_26:\n      mload(0x40)\n      dup1\n      swap2\n      sub\n      swap1\n      revert\n    tag_25:\n        /* \"Transaction.sol\":359:385  Transaction newTransaction */\n      0x00\n        /* \"Transaction.sol\":411:418  _amount */\n      dup3\n        /* \"Transaction.sol\":434:444  msg.sender */\n      caller\n        /* \"Transaction.sol\":459:468  _receiver */\n      dup4\n        /* \"Transaction.sol\":388:479  new Transaction{value: _amount}(... */\n      mload(0x40)\n      tag_28\n      swap1\n      tag_29\n      jump\t// in\n    tag_28:\n      tag_30\n      swap3\n      swap2\n      swap1\n      tag_31\n      jump\t// in\n    tag_30:\n      mload(0x40)\n      dup1\n      swap2\n      sub\n      swap1\n      dup3\n      create\n      swap1\n      pop\n      dup1\n      iszero\n      dup1\n      iszero\n      tag_32\n      jumpi\n      returndatasize\n      0x00\n      dup1\n      returndatacopy\n      revert(0x00, returndatasize)\n    tag_32:\n      pop\n        /* \"Transaction.sol\":359:479  Transaction newTransaction = new Transaction{value: _amount}(... */\n      swap1\n      pop\n        /* \"Transaction.sol\":490:510  deployedTransactions */\n      0x00\n        /* \"Transaction.sol\":524:538  newTransaction */\n      dup2\n        /* \"Transaction.sol\":490:540  deployedTransactions.push(address(newTransaction)) */\n      swap1\n      dup1\n      0x01\n      dup2\n      sload\n      add\n      dup1\n      dup3\n      sstore\n      dup1\n      swap2\n      pop\n      pop\n      0x01\n      swap1\n      sub\n      swap1\n      0x00\n      mstore\n      keccak256(0x00, 0x20)\n      add\n      0x00\n      swap1\n      swap2\n      swap1\n      swap2\n      swap1\n      swap2\n      0x0100\n      exp\n      dup2\n      sload\n      dup2\n      0xffffffffffffffffffffffffffffffffffffffff\n      mul\n      not\n      and\n      swap1\n      dup4\n      0xffffffffffffffffffffffffffffffffffffffff\n      and\n      mul\n      or\n      swap1\n      sstore\n      pop\n        /* \"Transaction.sol\":217:591  {... */\n      pop\n        /* \"Transaction.sol\":142:591  function createTransaction(uint _amount, address _receiver) public payable {... */\n      pop\n      pop\n      jump\t// out\n        /* \"Transaction.sol\":96:133  address[] public deployedTransactions */\n    tag_13:\n      0x00\n      dup2\n      dup2\n      sload\n      dup2\n      lt\n      tag_34\n      jumpi\n      0x00\n      dup1\n      revert\n    tag_34:\n      swap1\n      0x00\n      mstore\n      keccak256(0x00, 0x20)\n      add\n      0x00\n      swap2\n      pop\n      sload\n      swap1\n      0x0100\n      exp\n      swap1\n      div\n      0xffffffffffffffffffffffffffffffffffffffff\n      and\n      dup2\n      jump\t// out\n        /* \"Transaction.sol\":599:719  function getDeployedTransactions() public view returns (address[] memory) {... */\n    tag_18:\n        /* \"Transaction.sol\":655:671  address[] memory */\n      0x60\n        /* \"Transaction.sol\":691:711  deployedTransactions */\n      0x00\n        /* \"Transaction.sol\":684:711  return deployedTransactions */\n      dup1\n      sload\n      dup1\n      0x20\n      mul\n      0x20\n      add\n      mload(0x40)\n      swap1\n      dup2\n      add\n      0x40\n      mstore\n      dup1\n      swap3\n      swap2\n      swap1\n      dup2\n      dup2\n      mstore\n      0x20\n      add\n      dup3\n      dup1\n      sload\n      dup1\n      iszero\n      tag_37\n      jumpi\n      0x20\n      mul\n      dup3\n      add\n      swap2\n      swap1\n      0x00\n      mstore\n      keccak256(0x00, 0x20)\n      swap1\n    tag_38:\n      dup2\n      0x00\n      swap1\n      sload\n      swap1\n      0x0100\n      exp\n      swap1\n      div\n      0xffffffffffffffffffffffffffffffffffffffff\n      and\n      0xffffffffffffffffffffffffffffffffffffffff\n      and\n      dup2\n      mstore\n      0x20\n      add\n      swap1\n      0x01\n      add\n      swap1\n      dup1\n      dup4\n      gt\n      tag_38\n      jumpi\n    tag_37:\n      pop\n      pop\n      pop\n      pop\n      pop\n      swap1\n      pop\n        /* \"Transaction.sol\":599:719  function getDeployedTransactions() public view returns (address[] memory) {... */\n      swap1\n      jump\t// out\n    tag_29:\n      dataSize(sub_0)\n      dup1\n      dataOffset(sub_0)\n      dup4\n      codecopy\n      add\n      swap1\n      jump\t// out\n        /* \"#utility.yul\":88:205   */\n    tag_40:\n        /* \"#utility.yul\":197:198   */\n      0x00\n        /* \"#utility.yul\":194:195   */\n      dup1\n        /* \"#utility.yul\":187:199   */\n      revert\n        /* \"#utility.yul\":334:411   */\n    tag_42:\n        /* \"#utility.yul\":371:378   */\n      0x00\n        /* \"#utility.yul\":400:405   */\n      dup2\n        /* \"#utility.yul\":389:405   */\n      swap1\n      pop\n        /* \"#utility.yul\":334:411   */\n      swap2\n      swap1\n      pop\n      jump\t// out\n        /* \"#utility.yul\":417:539   */\n    tag_43:\n        /* \"#utility.yul\":490:514   */\n      tag_68\n        /* \"#utility.yul\":508:513   */\n      dup2\n        /* \"#utility.yul\":490:514   */\n      tag_42\n      jump\t// in\n    tag_68:\n        /* \"#utility.yul\":483:488   */\n      dup2\n        /* \"#utility.yul\":480:515   */\n      eq\n        /* \"#utility.yul\":470:533   */\n      tag_69\n      jumpi\n        /* \"#utility.yul\":529:530   */\n      0x00\n        /* \"#utility.yul\":526:527   */\n      dup1\n        /* \"#utility.yul\":519:531   */\n      revert\n        /* \"#utility.yul\":470:533   */\n    tag_69:\n        /* \"#utility.yul\":417:539   */\n      pop\n      jump\t// out\n        /* \"#utility.yul\":545:684   */\n    tag_44:\n        /* \"#utility.yul\":591:596   */\n      0x00\n        /* \"#utility.yul\":629:635   */\n      dup2\n        /* \"#utility.yul\":616:636   */\n      calldataload\n        /* \"#utility.yul\":607:636   */\n      swap1\n      pop\n        /* \"#utility.yul\":645:678   */\n      tag_71\n        /* \"#utility.yul\":672:677   */\n      dup2\n        /* \"#utility.yul\":645:678   */\n      tag_43\n      jump\t// in\n    tag_71:\n        /* \"#utility.yul\":545:684   */\n      swap3\n      swap2\n      pop\n      pop\n      jump\t// out\n        /* \"#utility.yul\":690:816   */\n    tag_45:\n        /* \"#utility.yul\":727:734   */\n      0x00\n        /* \"#utility.yul\":767:809   */\n      0xffffffffffffffffffffffffffffffffffffffff\n        /* \"#utility.yul\":760:765   */\n      dup3\n        /* \"#utility.yul\":756:810   */\n      and\n        /* \"#utility.yul\":745:810   */\n      swap1\n      pop\n        /* \"#utility.yul\":690:816   */\n      swap2\n      swap1\n      pop\n      jump\t// out\n        /* \"#utility.yul\":822:918   */\n    tag_46:\n        /* \"#utility.yul\":859:866   */\n      0x00\n        /* \"#utility.yul\":888:912   */\n      tag_74\n        /* \"#utility.yul\":906:911   */\n      dup3\n        /* \"#utility.yul\":888:912   */\n      tag_45\n      jump\t// in\n    tag_74:\n        /* \"#utility.yul\":877:912   */\n      swap1\n      pop\n        /* \"#utility.yul\":822:918   */\n      swap2\n      swap1\n      pop\n      jump\t// out\n        /* \"#utility.yul\":924:1046   */\n    tag_47:\n        /* \"#utility.yul\":997:1021   */\n      tag_76\n        /* \"#utility.yul\":1015:1020   */\n      dup2\n        /* \"#utility.yul\":997:1021   */\n      tag_46\n      jump\t// in\n    tag_76:\n        /* \"#utility.yul\":990:995   */\n      dup2\n        /* \"#utility.yul\":987:1022   */\n      eq\n        /* \"#utility.yul\":977:1040   */\n      tag_77\n      jumpi\n        /* \"#utility.yul\":1036:1037   */\n      0x00\n        /* \"#utility.yul\":1033:1034   */\n      dup1\n        /* \"#utility.yul\":1026:1038   */\n      revert\n        /* \"#utility.yul\":977:1040   */\n    tag_77:\n        /* \"#utility.yul\":924:1046   */\n      pop\n      jump\t// out\n        /* \"#utility.yul\":1052:1191   */\n    tag_48:\n        /* \"#utility.yul\":1098:1103   */\n      0x00\n        /* \"#utility.yul\":1136:1142   */\n      dup2\n        /* \"#utility.yul\":1123:1143   */\n      calldataload\n        /* \"#utility.yul\":1114:1143   */\n      swap1\n      pop\n        /* \"#utility.yul\":1152:1185   */\n      tag_79\n        /* \"#utility.yul\":1179:1184   */\n      dup2\n        /* \"#utility.yul\":1152:1185   */\n      tag_47\n      jump\t// in\n    tag_79:\n        /* \"#utility.yul\":1052:1191   */\n      swap3\n      swap2\n      pop\n      pop\n      jump\t// out\n        /* \"#utility.yul\":1197:1671   */\n    tag_7:\n        /* \"#utility.yul\":1265:1271   */\n      0x00\n        /* \"#utility.yul\":1273:1279   */\n      dup1\n        /* \"#utility.yul\":1322:1324   */\n      0x40\n        /* \"#utility.yul\":1310:1319   */\n      dup4\n        /* \"#utility.yul\":1301:1308   */\n      dup6\n        /* \"#utility.yul\":1297:1320   */\n      sub\n        /* \"#utility.yul\":1293:1325   */\n      slt\n        /* \"#utility.yul\":1290:1409   */\n      iszero\n      tag_81\n      jumpi\n        /* \"#utility.yul\":1328:1407   */\n      tag_82\n      tag_40\n      jump\t// in\n    tag_82:\n        /* \"#utility.yul\":1290:1409   */\n    tag_81:\n        /* \"#utility.yul\":1448:1449   */\n      0x00\n        /* \"#utility.yul\":1473:1526   */\n      tag_83\n        /* \"#utility.yul\":1518:1525   */\n      dup6\n        /* \"#utility.yul\":1509:1515   */\n      dup3\n        /* \"#utility.yul\":1498:1507   */\n      dup7\n        /* \"#utility.yul\":1494:1516   */\n      add\n        /* \"#utility.yul\":1473:1526   */\n      tag_44\n      jump\t// in\n    tag_83:\n        /* \"#utility.yul\":1463:1526   */\n      swap3\n      pop\n        /* \"#utility.yul\":1419:1536   */\n      pop\n        /* \"#utility.yul\":1575:1577   */\n      0x20\n        /* \"#utility.yul\":1601:1654   */\n      tag_84\n        /* \"#utility.yul\":1646:1653   */\n      dup6\n        /* \"#utility.yul\":1637:1643   */\n      dup3\n        /* \"#utility.yul\":1626:1635   */\n      dup7\n        /* \"#utility.yul\":1622:1644   */\n      add\n        /* \"#utility.yul\":1601:1654   */\n      tag_48\n      jump\t// in\n    tag_84:\n        /* \"#utility.yul\":1591:1654   */\n      swap2\n      pop\n        /* \"#utility.yul\":1546:1664   */\n      pop\n        /* \"#utility.yul\":1197:1671   */\n      swap3\n      pop\n      swap3\n      swap1\n      pop\n      jump\t// out\n        /* \"#utility.yul\":1677:2006   */\n    tag_12:\n        /* \"#utility.yul\":1736:1742   */\n      0x00\n        /* \"#utility.yul\":1785:1787   */\n      0x20\n        /* \"#utility.yul\":1773:1782   */\n      dup3\n        /* \"#utility.yul\":1764:1771   */\n      dup5\n        /* \"#utility.yul\":1760:1783   */\n      sub\n        /* \"#utility.yul\":1756:1788   */\n      slt\n        /* \"#utility.yul\":1753:1872   */\n      iszero\n      tag_86\n      jumpi\n        /* \"#utility.yul\":1791:1870   */\n      tag_87\n      tag_40\n      jump\t// in\n    tag_87:\n        /* \"#utility.yul\":1753:1872   */\n    tag_86:\n        /* \"#utility.yul\":1911:1912   */\n      0x00\n        /* \"#utility.yul\":1936:1989   */\n      tag_88\n        /* \"#utility.yul\":1981:1988   */\n      dup5\n        /* \"#utility.yul\":1972:1978   */\n      dup3\n        /* \"#utility.yul\":1961:1970   */\n      dup6\n        /* \"#utility.yul\":1957:1979   */\n      add\n        /* \"#utility.yul\":1936:1989   */\n      tag_44\n      jump\t// in\n    tag_88:\n        /* \"#utility.yul\":1926:1989   */\n      swap2\n      pop\n        /* \"#utility.yul\":1882:1999   */\n      pop\n        /* \"#utility.yul\":1677:2006   */\n      swap3\n      swap2\n      pop\n      pop\n      jump\t// out\n        /* \"#utility.yul\":2012:2130   */\n    tag_49:\n        /* \"#utility.yul\":2099:2123   */\n      tag_90\n        /* \"#utility.yul\":2117:2122   */\n      dup2\n        /* \"#utility.yul\":2099:2123   */\n      tag_46\n      jump\t// in\n    tag_90:\n        /* \"#utility.yul\":2094:2097   */\n      dup3\n        /* \"#utility.yul\":2087:2124   */\n      mstore\n        /* \"#utility.yul\":2012:2130   */\n      pop\n      pop\n      jump\t// out\n        /* \"#utility.yul\":2136:2358   */\n    tag_15:\n        /* \"#utility.yul\":2229:2233   */\n      0x00\n        /* \"#utility.yul\":2267:2269   */\n      0x20\n        /* \"#utility.yul\":2256:2265   */\n      dup3\n        /* \"#utility.yul\":2252:2270   */\n      add\n        /* \"#utility.yul\":2244:2270   */\n      swap1\n      pop\n        /* \"#utility.yul\":2280:2351   */\n      tag_92\n        /* \"#utility.yul\":2348:2349   */\n      0x00\n        /* \"#utility.yul\":2337:2346   */\n      dup4\n        /* \"#utility.yul\":2333:2350   */\n      add\n        /* \"#utility.yul\":2324:2330   */\n      dup5\n        /* \"#utility.yul\":2280:2351   */\n      tag_49\n      jump\t// in\n    tag_92:\n        /* \"#utility.yul\":2136:2358   */\n      swap3\n      swap2\n      pop\n      pop\n      jump\t// out\n        /* \"#utility.yul\":2364:2478   */\n    tag_50:\n        /* \"#utility.yul\":2431:2437   */\n      0x00\n        /* \"#utility.yul\":2465:2470   */\n      dup2\n        /* \"#utility.yul\":2459:2471   */\n      mload\n        /* \"#utility.yul\":2449:2471   */\n      swap1\n      pop\n        /* \"#utility.yul\":2364:2478   */\n      swap2\n      swap1\n      pop\n      jump\t// out\n        /* \"#utility.yul\":2484:2668   */\n    tag_51:\n        /* \"#utility.yul\":2583:2594   */\n      0x00\n        /* \"#utility.yul\":2617:2623   */\n      dup3\n        /* \"#utility.yul\":2612:2615   */\n      dup3\n        /* \"#utility.yul\":2605:2624   */\n      mstore\n        /* \"#utility.yul\":2657:2661   */\n      0x20\n        /* \"#utility.yul\":2652:2655   */\n      dup3\n        /* \"#utility.yul\":2648:2662   */\n      add\n        /* \"#utility.yul\":2633:2662   */\n      swap1\n      pop\n        /* \"#utility.yul\":2484:2668   */\n      swap3\n      swap2\n      pop\n      pop\n      jump\t// out\n        /* \"#utility.yul\":2674:2806   */\n    tag_52:\n        /* \"#utility.yul\":2741:2745   */\n      0x00\n        /* \"#utility.yul\":2764:2767   */\n      dup2\n        /* \"#utility.yul\":2756:2767   */\n      swap1\n      pop\n        /* \"#utility.yul\":2794:2798   */\n      0x20\n        /* \"#utility.yul\":2789:2792   */\n      dup3\n        /* \"#utility.yul\":2785:2799   */\n      add\n        /* \"#utility.yul\":2777:2799   */\n      swap1\n      pop\n        /* \"#utility.yul\":2674:2806   */\n      swap2\n      swap1\n      pop\n      jump\t// out\n        /* \"#utility.yul\":2812:2920   */\n    tag_53:\n        /* \"#utility.yul\":2889:2913   */\n      tag_97\n        /* \"#utility.yul\":2907:2912   */\n      dup2\n        /* \"#utility.yul\":2889:2913   */\n      tag_46\n      jump\t// in\n    tag_97:\n        /* \"#utility.yul\":2884:2887   */\n      dup3\n        /* \"#utility.yul\":2877:2914   */\n      mstore\n        /* \"#utility.yul\":2812:2920   */\n      pop\n      pop\n      jump\t// out\n        /* \"#utility.yul\":2926:3105   */\n    tag_54:\n        /* \"#utility.yul\":2995:3005   */\n      0x00\n        /* \"#utility.yul\":3016:3062   */\n      tag_99\n        /* \"#utility.yul\":3058:3061   */\n      dup4\n        /* \"#utility.yul\":3050:3056   */\n      dup4\n        /* \"#utility.yul\":3016:3062   */\n      tag_53\n      jump\t// in\n    tag_99:\n        /* \"#utility.yul\":3094:3098   */\n      0x20\n        /* \"#utility.yul\":3089:3092   */\n      dup4\n        /* \"#utility.yul\":3085:3099   */\n      add\n        /* \"#utility.yul\":3071:3099   */\n      swap1\n      pop\n        /* \"#utility.yul\":2926:3105   */\n      swap3\n      swap2\n      pop\n      pop\n      jump\t// out\n        /* \"#utility.yul\":3111:3224   */\n    tag_55:\n        /* \"#utility.yul\":3181:3185   */\n      0x00\n        /* \"#utility.yul\":3213:3217   */\n      0x20\n        /* \"#utility.yul\":3208:3211   */\n      dup3\n        /* \"#utility.yul\":3204:3218   */\n      add\n        /* \"#utility.yul\":3196:3218   */\n      swap1\n      pop\n        /* \"#utility.yul\":3111:3224   */\n      swap2\n      swap1\n      pop\n      jump\t// out\n        /* \"#utility.yul\":3260:3992   */\n    tag_56:\n        /* \"#utility.yul\":3379:3382   */\n      0x00\n        /* \"#utility.yul\":3408:3462   */\n      tag_102\n        /* \"#utility.yul\":3456:3461   */\n      dup3\n        /* \"#utility.yul\":3408:3462   */\n      tag_50\n      jump\t// in\n    tag_102:\n        /* \"#utility.yul\":3478:3564   */\n      tag_103\n        /* \"#utility.yul\":3557:3563   */\n      dup2\n        /* \"#utility.yul\":3552:3555   */\n      dup6\n        /* \"#utility.yul\":3478:3564   */\n      tag_51\n      jump\t// in\n    tag_103:\n        /* \"#utility.yul\":3471:3564   */\n      swap4\n      pop\n        /* \"#utility.yul\":3588:3644   */\n      tag_104\n        /* \"#utility.yul\":3638:3643   */\n      dup4\n        /* \"#utility.yul\":3588:3644   */\n      tag_52\n      jump\t// in\n    tag_104:\n        /* \"#utility.yul\":3667:3674   */\n      dup1\n        /* \"#utility.yul\":3698:3699   */\n      0x00\n        /* \"#utility.yul\":3683:3967   */\n    tag_105:\n        /* \"#utility.yul\":3708:3714   */\n      dup4\n        /* \"#utility.yul\":3705:3706   */\n      dup2\n        /* \"#utility.yul\":3702:3715   */\n      lt\n        /* \"#utility.yul\":3683:3967   */\n      iszero\n      tag_107\n      jumpi\n        /* \"#utility.yul\":3784:3790   */\n      dup2\n        /* \"#utility.yul\":3778:3791   */\n      mload\n        /* \"#utility.yul\":3811:3874   */\n      tag_108\n        /* \"#utility.yul\":3870:3873   */\n      dup9\n        /* \"#utility.yul\":3855:3868   */\n      dup3\n        /* \"#utility.yul\":3811:3874   */\n      tag_54\n      jump\t// in\n    tag_108:\n        /* \"#utility.yul\":3804:3874   */\n      swap8\n      pop\n        /* \"#utility.yul\":3897:3957   */\n      tag_109\n        /* \"#utility.yul\":3950:3956   */\n      dup4\n        /* \"#utility.yul\":3897:3957   */\n      tag_55\n      jump\t// in\n    tag_109:\n        /* \"#utility.yul\":3887:3957   */\n      swap3\n      pop\n        /* \"#utility.yul\":3743:3967   */\n      pop\n        /* \"#utility.yul\":3730:3731   */\n      0x01\n        /* \"#utility.yul\":3727:3728   */\n      dup2\n        /* \"#utility.yul\":3723:3732   */\n      add\n        /* \"#utility.yul\":3718:3732   */\n      swap1\n      pop\n        /* \"#utility.yul\":3683:3967   */\n      jump(tag_105)\n    tag_107:\n        /* \"#utility.yul\":3687:3701   */\n      pop\n        /* \"#utility.yul\":3983:3986   */\n      dup6\n        /* \"#utility.yul\":3976:3986   */\n      swap4\n      pop\n        /* \"#utility.yul\":3384:3992   */\n      pop\n      pop\n      pop\n        /* \"#utility.yul\":3260:3992   */\n      swap3\n      swap2\n      pop\n      pop\n      jump\t// out\n        /* \"#utility.yul\":3998:4371   */\n    tag_20:\n        /* \"#utility.yul\":4141:4145   */\n      0x00\n        /* \"#utility.yul\":4179:4181   */\n      0x20\n        /* \"#utility.yul\":4168:4177   */\n      dup3\n        /* \"#utility.yul\":4164:4182   */\n      add\n        /* \"#utility.yul\":4156:4182   */\n      swap1\n      pop\n        /* \"#utility.yul\":4228:4237   */\n      dup2\n        /* \"#utility.yul\":4222:4226   */\n      dup2\n        /* \"#utility.yul\":4218:4238   */\n      sub\n        /* \"#utility.yul\":4214:4215   */\n      0x00\n        /* \"#utility.yul\":4203:4212   */\n      dup4\n        /* \"#utility.yul\":4199:4216   */\n      add\n        /* \"#utility.yul\":4192:4239   */\n      mstore\n        /* \"#utility.yul\":4256:4364   */\n      tag_111\n        /* \"#utility.yul\":4359:4363   */\n      dup2\n        /* \"#utility.yul\":4350:4356   */\n      dup5\n        /* \"#utility.yul\":4256:4364   */\n      tag_56\n      jump\t// in\n    tag_111:\n        /* \"#utility.yul\":4248:4364   */\n      swap1\n      pop\n        /* \"#utility.yul\":3998:4371   */\n      swap3\n      swap2\n      pop\n      pop\n      jump\t// out\n        /* \"#utility.yul\":4377:4546   */\n    tag_57:\n        /* \"#utility.yul\":4461:4472   */\n      0x00\n        /* \"#utility.yul\":4495:4501   */\n      dup3\n        /* \"#utility.yul\":4490:4493   */\n      dup3\n        /* \"#utility.yul\":4483:4502   */\n      mstore\n        /* \"#utility.yul\":4535:4539   */\n      0x20\n        /* \"#utility.yul\":4530:4533   */\n      dup3\n        /* \"#utility.yul\":4526:4540   */\n      add\n        /* \"#utility.yul\":4511:4540   */\n      swap1\n      pop\n        /* \"#utility.yul\":4377:4546   */\n      swap3\n      swap2\n      pop\n      pop\n      jump\t// out\n        /* \"#utility.yul\":4552:4731   */\n    tag_58:\n        /* \"#utility.yul\":4692:4723   */\n      0x416d6f756e74206d7573742062652067726561746572207468616e2030000000\n        /* \"#utility.yul\":4688:4689   */\n      0x00\n        /* \"#utility.yul\":4680:4686   */\n      dup3\n        /* \"#utility.yul\":4676:4690   */\n      add\n        /* \"#utility.yul\":4669:4724   */\n      mstore\n        /* \"#utility.yul\":4552:4731   */\n      pop\n      jump\t// out\n        /* \"#utility.yul\":4737:5103   */\n    tag_59:\n        /* \"#utility.yul\":4879:4882   */\n      0x00\n        /* \"#utility.yul\":4900:4967   */\n      tag_115\n        /* \"#utility.yul\":4964:4966   */\n      0x1d\n        /* \"#utility.yul\":4959:4962   */\n      dup4\n        /* \"#utility.yul\":4900:4967   */\n      tag_57\n      jump\t// in\n    tag_115:\n        /* \"#utility.yul\":4893:4967   */\n      swap2\n      pop\n        /* \"#utility.yul\":4976:5069   */\n      tag_116\n        /* \"#utility.yul\":5065:5068   */\n      dup3\n        /* \"#utility.yul\":4976:5069   */\n      tag_58\n      jump\t// in\n    tag_116:\n        /* \"#utility.yul\":5094:5096   */\n      0x20\n        /* \"#utility.yul\":5089:5092   */\n      dup3\n        /* \"#utility.yul\":5085:5097   */\n      add\n        /* \"#utility.yul\":5078:5097   */\n      swap1\n      pop\n        /* \"#utility.yul\":4737:5103   */\n      swap2\n      swap1\n      pop\n      jump\t// out\n        /* \"#utility.yul\":5109:5528   */\n    tag_24:\n        /* \"#utility.yul\":5275:5279   */\n      0x00\n        /* \"#utility.yul\":5313:5315   */\n      0x20\n        /* \"#utility.yul\":5302:5311   */\n      dup3\n        /* \"#utility.yul\":5298:5316   */\n      add\n        /* \"#utility.yul\":5290:5316   */\n      swap1\n      pop\n        /* \"#utility.yul\":5362:5371   */\n      dup2\n        /* \"#utility.yul\":5356:5360   */\n      dup2\n        /* \"#utility.yul\":5352:5372   */\n      sub\n        /* \"#utility.yul\":5348:5349   */\n      0x00\n        /* \"#utility.yul\":5337:5346   */\n      dup4\n        /* \"#utility.yul\":5333:5350   */\n      add\n        /* \"#utility.yul\":5326:5373   */\n      mstore\n        /* \"#utility.yul\":5390:5521   */\n      tag_118\n        /* \"#utility.yul\":5516:5520   */\n      dup2\n        /* \"#utility.yul\":5390:5521   */\n      tag_59\n      jump\t// in\n    tag_118:\n        /* \"#utility.yul\":5382:5521   */\n      swap1\n      pop\n        /* \"#utility.yul\":5109:5528   */\n      swap2\n      swap1\n      pop\n      jump\t// out\n        /* \"#utility.yul\":5534:5707   */\n    tag_60:\n        /* \"#utility.yul\":5674:5699   */\n      0x496e73756666696369656e742045746865722073656e74000000000000000000\n        /* \"#utility.yul\":5670:5671   */\n      0x00\n        /* \"#utility.yul\":5662:5668   */\n      dup3\n        /* \"#utility.yul\":5658:5672   */\n      add\n        /* \"#utility.yul\":5651:5700   */\n      mstore\n        /* \"#utility.yul\":5534:5707   */\n      pop\n      jump\t// out\n        /* \"#utility.yul\":5713:6079   */\n    tag_61:\n        /* \"#utility.yul\":5855:5858   */\n      0x00\n        /* \"#utility.yul\":5876:5943   */\n      tag_121\n        /* \"#utility.yul\":5940:5942   */\n      0x17\n        /* \"#utility.yul\":5935:5938   */\n      dup4\n        /* \"#utility.yul\":5876:5943   */\n      tag_57\n      jump\t// in\n    tag_121:\n        /* \"#utility.yul\":5869:5943   */\n      swap2\n      pop\n        /* \"#utility.yul\":5952:6045   */\n      tag_122\n        /* \"#utility.yul\":6041:6044   */\n      dup3\n        /* \"#utility.yul\":5952:6045   */\n      tag_60\n      jump\t// in\n    tag_122:\n        /* \"#utility.yul\":6070:6072   */\n      0x20\n        /* \"#utility.yul\":6065:6068   */\n      dup3\n        /* \"#utility.yul\":6061:6073   */\n      add\n        /* \"#utility.yul\":6054:6073   */\n      swap1\n      pop\n        /* \"#utility.yul\":5713:6079   */\n      swap2\n      swap1\n      pop\n      jump\t// out\n        /* \"#utility.yul\":6085:6504   */\n    tag_27:\n        /* \"#utility.yul\":6251:6255   */\n      0x00\n        /* \"#utility.yul\":6289:6291   */\n      0x20\n        /* \"#utility.yul\":6278:6287   */\n      dup3\n        /* \"#utility.yul\":6274:6292   */\n      add\n        /* \"#utility.yul\":6266:6292   */\n      swap1\n      pop\n        /* \"#utility.yul\":6338:6347   */\n      dup2\n        /* \"#utility.yul\":6332:6336   */\n      dup2\n        /* \"#utility.yul\":6328:6348   */\n      sub\n        /* \"#utility.yul\":6324:6325   */\n      0x00\n        /* \"#utility.yul\":6313:6322   */\n      dup4\n        /* \"#utility.yul\":6309:6326   */\n      add\n        /* \"#utility.yul\":6302:6349   */\n      mstore\n        /* \"#utility.yul\":6366:6497   */\n      tag_124\n        /* \"#utility.yul\":6492:6496   */\n      dup2\n        /* \"#utility.yul\":6366:6497   */\n      tag_61\n      jump\t// in\n    tag_124:\n        /* \"#utility.yul\":6358:6497   */\n      swap1\n      pop\n        /* \"#utility.yul\":6085:6504   */\n      swap2\n      swap1\n      pop\n      jump\t// out\n        /* \"#utility.yul\":6510:6842   */\n    tag_31:\n        /* \"#utility.yul\":6631:6635   */\n      0x00\n        /* \"#utility.yul\":6669:6671   */\n      0x40\n        /* \"#utility.yul\":6658:6667   */\n      dup3\n        /* \"#utility.yul\":6654:6672   */\n      add\n        /* \"#utility.yul\":6646:6672   */\n      swap1\n      pop\n        /* \"#utility.yul\":6682:6753   */\n      tag_126\n        /* \"#utility.yul\":6750:6751   */\n      0x00\n        /* \"#utility.yul\":6739:6748   */\n      dup4\n        /* \"#utility.yul\":6735:6752   */\n      add\n        /* \"#utility.yul\":6726:6732   */\n      dup6\n        /* \"#utility.yul\":6682:6753   */\n      tag_49\n      jump\t// in\n    tag_126:\n        /* \"#utility.yul\":6763:6835   */\n      tag_127\n        /* \"#utility.yul\":6831:6833   */\n      0x20\n        /* \"#utility.yul\":6820:6829   */\n      dup4\n        /* \"#utility.yul\":6816:6834   */\n      add\n        /* \"#utility.yul\":6807:6813   */\n      dup5\n        /* \"#utility.yul\":6763:6835   */\n      tag_49\n      jump\t// in\n    tag_127:\n        /* \"#utility.yul\":6510:6842   */\n      swap4\n      swap3\n      pop\n      pop\n      pop\n      jump\t// out\n    stop\n\n    sub_0: assembly {\n            /* \"Transaction.sol\":726:2786  contract Transaction {... */\n          mstore(0x40, 0x80)\n            /* \"Transaction.sol\":1081:1412  constructor(address _sender, address _receiver) payable {... */\n          mload(0x40)\n          sub(codesize, bytecodeSize)\n          dup1\n          bytecodeSize\n          dup4\n          codecopy\n          dup2\n          dup2\n          add\n          0x40\n          mstore\n          dup2\n          add\n          swap1\n          tag_1\n          swap2\n          swap1\n          tag_2\n          jump\t// in\n        tag_1:\n            /* \"Transaction.sol\":1158:1165  _sender */\n          dup2\n            /* \"Transaction.sol\":1148:1155  manager */\n          0x00\n          dup1\n            /* \"Transaction.sol\":1148:1165  manager = _sender */\n          0x0100\n          exp\n          dup2\n          sload\n          dup2\n          0xffffffffffffffffffffffffffffffffffffffff\n          mul\n          not\n          and\n          swap1\n          dup4\n          0xffffffffffffffffffffffffffffffffffffffff\n          and\n          mul\n          or\n          swap1\n          sstore\n          pop\n            /* \"Transaction.sol\":1187:1196  _receiver */\n          dup1\n            /* \"Transaction.sol\":1176:1184  receiver */\n          0x01\n          0x00\n            /* \"Transaction.sol\":1176:1196  receiver = _receiver */\n          0x0100\n          exp\n          dup2\n          sload\n          dup2\n          0xffffffffffffffffffffffffffffffffffffffff\n          mul\n          not\n          and\n          swap1\n          dup4\n          0xffffffffffffffffffffffffffffffffffffffff\n          and\n          mul\n          or\n          swap1\n          sstore\n          pop\n            /* \"Transaction.sol\":1216:1225  msg.value */\n          callvalue\n            /* \"Transaction.sol\":1207:1213  amount */\n          0x02\n            /* \"Transaction.sol\":1207:1225  amount = msg.value */\n          dup2\n          swap1\n          sstore\n          pop\n            /* \"Transaction.sol\":1300:1305  false */\n          0x00\n            /* \"Transaction.sol\":1289:1297  complete */\n          0x03\n          0x00\n            /* \"Transaction.sol\":1289:1305  complete = false */\n          0x0100\n          exp\n          dup2\n          sload\n          dup2\n          0xff\n          mul\n          not\n          and\n          swap1\n          dup4\n          iszero\n          iszero\n          mul\n          or\n          swap1\n          sstore\n          pop\n            /* \"Transaction.sol\":1328:1343  block.timestamp */\n          timestamp\n            /* \"Transaction.sol\":1316:1325  timestamp */\n          0x04\n            /* \"Transaction.sol\":1316:1343  timestamp = block.timestamp */\n          dup2\n          swap1\n          sstore\n          pop\n            /* \"Transaction.sol\":1081:1412  constructor(address _sender, address _receiver) payable {... */\n          pop\n          pop\n            /* \"Transaction.sol\":726:2786  contract Transaction {... */\n          jump(tag_5)\n            /* \"#utility.yul\":88:205   */\n        tag_7:\n            /* \"#utility.yul\":197:198   */\n          0x00\n            /* \"#utility.yul\":194:195   */\n          dup1\n            /* \"#utility.yul\":187:199   */\n          revert\n            /* \"#utility.yul\":334:460   */\n        tag_9:\n            /* \"#utility.yul\":371:378   */\n          0x00\n            /* \"#utility.yul\":411:453   */\n          0xffffffffffffffffffffffffffffffffffffffff\n            /* \"#utility.yul\":404:409   */\n          dup3\n            /* \"#utility.yul\":400:454   */\n          and\n            /* \"#utility.yul\":389:454   */\n          swap1\n          pop\n            /* \"#utility.yul\":334:460   */\n          swap2\n          swap1\n          pop\n          jump\t// out\n            /* \"#utility.yul\":466:562   */\n        tag_10:\n            /* \"#utility.yul\":503:510   */\n          0x00\n            /* \"#utility.yul\":532:556   */\n          tag_19\n            /* \"#utility.yul\":550:555   */\n          dup3\n            /* \"#utility.yul\":532:556   */\n          tag_9\n          jump\t// in\n        tag_19:\n            /* \"#utility.yul\":521:556   */\n          swap1\n          pop\n            /* \"#utility.yul\":466:562   */\n          swap2\n          swap1\n          pop\n          jump\t// out\n            /* \"#utility.yul\":568:690   */\n        tag_11:\n            /* \"#utility.yul\":641:665   */\n          tag_21\n            /* \"#utility.yul\":659:664   */\n          dup2\n            /* \"#utility.yul\":641:665   */\n          tag_10\n          jump\t// in\n        tag_21:\n            /* \"#utility.yul\":634:639   */\n          dup2\n            /* \"#utility.yul\":631:666   */\n          eq\n            /* \"#utility.yul\":621:684   */\n          tag_22\n          jumpi\n            /* \"#utility.yul\":680:681   */\n          0x00\n            /* \"#utility.yul\":677:678   */\n          dup1\n            /* \"#utility.yul\":670:682   */\n          revert\n            /* \"#utility.yul\":621:684   */\n        tag_22:\n            /* \"#utility.yul\":568:690   */\n          pop\n          jump\t// out\n            /* \"#utility.yul\":696:839   */\n        tag_12:\n            /* \"#utility.yul\":753:758   */\n          0x00\n            /* \"#utility.yul\":784:790   */\n          dup2\n            /* \"#utility.yul\":778:791   */\n          mload\n            /* \"#utility.yul\":769:791   */\n          swap1\n          pop\n            /* \"#utility.yul\":800:833   */\n          tag_24\n            /* \"#utility.yul\":827:832   */\n          dup2\n            /* \"#utility.yul\":800:833   */\n          tag_11\n          jump\t// in\n        tag_24:\n            /* \"#utility.yul\":696:839   */\n          swap3\n          swap2\n          pop\n          pop\n          jump\t// out\n            /* \"#utility.yul\":845:1352   */\n        tag_2:\n            /* \"#utility.yul\":924:930   */\n          0x00\n            /* \"#utility.yul\":932:938   */\n          dup1\n            /* \"#utility.yul\":981:983   */\n          0x40\n            /* \"#utility.yul\":969:978   */\n          dup4\n            /* \"#utility.yul\":960:967   */\n          dup6\n            /* \"#utility.yul\":956:979   */\n          sub\n            /* \"#utility.yul\":952:984   */\n          slt\n            /* \"#utility.yul\":949:1068   */\n          iszero\n          tag_26\n          jumpi\n            /* \"#utility.yul\":987:1066   */\n          tag_27\n          tag_7\n          jump\t// in\n        tag_27:\n            /* \"#utility.yul\":949:1068   */\n        tag_26:\n            /* \"#utility.yul\":1107:1108   */\n          0x00\n            /* \"#utility.yul\":1132:1196   */\n          tag_28\n            /* \"#utility.yul\":1188:1195   */\n          dup6\n            /* \"#utility.yul\":1179:1185   */\n          dup3\n            /* \"#utility.yul\":1168:1177   */\n          dup7\n            /* \"#utility.yul\":1164:1186   */\n          add\n            /* \"#utility.yul\":1132:1196   */\n          tag_12\n          jump\t// in\n        tag_28:\n            /* \"#utility.yul\":1122:1196   */\n          swap3\n          pop\n            /* \"#utility.yul\":1078:1206   */\n          pop\n            /* \"#utility.yul\":1245:1247   */\n          0x20\n            /* \"#utility.yul\":1271:1335   */\n          tag_29\n            /* \"#utility.yul\":1327:1334   */\n          dup6\n            /* \"#utility.yul\":1318:1324   */\n          dup3\n            /* \"#utility.yul\":1307:1316   */\n          dup7\n            /* \"#utility.yul\":1303:1325   */\n          add\n            /* \"#utility.yul\":1271:1335   */\n          tag_12\n          jump\t// in\n        tag_29:\n            /* \"#utility.yul\":1261:1335   */\n          swap2\n          pop\n            /* \"#utility.yul\":1216:1345   */\n          pop\n            /* \"#utility.yul\":845:1352   */\n          swap3\n          pop\n          swap3\n          swap1\n          pop\n          jump\t// out\n            /* \"Transaction.sol\":726:2786  contract Transaction {... */\n        tag_5:\n          dataSize(sub_0)\n          dup1\n          dataOffset(sub_0)\n          0x00\n          codecopy\n          0x00\n          return\n        stop\n\n        sub_0: assembly {\n                /* \"Transaction.sol\":726:2786  contract Transaction {... */\n              mstore(0x40, 0x80)\n              jumpi(tag_1, lt(calldatasize, 0x04))\n              shr(0xe0, calldataload(0x00))\n              dup1\n              0xaa8c217c\n              gt\n              tag_10\n              jumpi\n              dup1\n              0xaa8c217c\n              eq\n              tag_6\n              jumpi\n              dup1\n              0xb46300ec\n              eq\n              tag_7\n              jumpi\n              dup1\n              0xb80777ea\n              eq\n              tag_8\n              jumpi\n              dup1\n              0xf7260d3e\n              eq\n              tag_9\n              jumpi\n              jump(tag_1)\n            tag_10:\n              dup1\n              0x3cbe8363\n              eq\n              tag_2\n              jumpi\n              dup1\n              0x3ccfd60b\n              eq\n              tag_3\n              jumpi\n              dup1\n              0x481c6a75\n              eq\n              tag_4\n              jumpi\n              dup1\n              0x522e1177\n              eq\n              tag_5\n              jumpi\n            tag_1:\n              0x00\n              dup1\n              revert\n                /* \"Transaction.sol\":2473:2783  function returnInformation()... */\n            tag_2:\n              callvalue\n              dup1\n              iszero\n              tag_11\n              jumpi\n              0x00\n              dup1\n              revert\n            tag_11:\n              pop\n              tag_12\n              tag_13\n              jump\t// in\n            tag_12:\n              mload(0x40)\n              tag_14\n              swap7\n              swap6\n              swap5\n              swap4\n              swap3\n              swap2\n              swap1\n              tag_15\n              jump\t// in\n            tag_14:\n              mload(0x40)\n              dup1\n              swap2\n              sub\n              swap1\n              return\n                /* \"Transaction.sol\":2020:2465  function withdraw() public onlyManager {... */\n            tag_3:\n              callvalue\n              dup1\n              iszero\n              tag_16\n              jumpi\n              0x00\n              dup1\n              revert\n            tag_16:\n              pop\n              tag_17\n              tag_18\n              jump\t// in\n            tag_17:\n              stop\n                /* \"Transaction.sol\":754:776  address public manager */\n            tag_4:\n              callvalue\n              dup1\n              iszero\n              tag_19\n              jumpi\n              0x00\n              dup1\n              revert\n            tag_19:\n              pop\n              tag_20\n              tag_21\n              jump\t// in\n            tag_20:\n              mload(0x40)\n              tag_22\n              swap2\n              swap1\n              tag_23\n              jump\t// in\n            tag_22:\n              mload(0x40)\n              dup1\n              swap2\n              sub\n              swap1\n              return\n                /* \"Transaction.sol\":838:858  bool public complete */\n            tag_5:\n              callvalue\n              dup1\n              iszero\n              tag_24\n              jumpi\n              0x00\n              dup1\n              revert\n            tag_24:\n              pop\n              tag_25\n              tag_26\n              jump\t// in\n            tag_25:\n              mload(0x40)\n              tag_27\n              swap2\n              swap1\n              tag_28\n              jump\t// in\n            tag_27:\n              mload(0x40)\n              dup1\n              swap2\n              sub\n              swap1\n              return\n                /* \"Transaction.sol\":813:831  uint public amount */\n            tag_6:\n              callvalue\n              dup1\n              iszero\n              tag_29\n              jumpi\n              0x00\n              dup1\n              revert\n            tag_29:\n              pop\n              tag_30\n              tag_31\n              jump\t// in\n            tag_30:\n              mload(0x40)\n              tag_32\n              swap2\n              swap1\n              tag_33\n              jump\t// in\n            tag_32:\n              mload(0x40)\n              dup1\n              swap2\n              sub\n              swap1\n              return\n                /* \"Transaction.sol\":1561:2012  function send() public payable onlyManager {... */\n            tag_7:\n              tag_34\n              tag_35\n              jump\t// in\n            tag_34:\n              stop\n                /* \"Transaction.sol\":865:886  uint public timestamp */\n            tag_8:\n              callvalue\n              dup1\n              iszero\n              tag_36\n              jumpi\n              0x00\n              dup1\n              revert\n            tag_36:\n              pop\n              tag_37\n              tag_38\n              jump\t// in\n            tag_37:\n              mload(0x40)\n              tag_39\n              swap2\n              swap1\n              tag_33\n              jump\t// in\n            tag_39:\n              mload(0x40)\n              dup1\n              swap2\n              sub\n              swap1\n              return\n                /* \"Transaction.sol\":783:806  address public receiver */\n            tag_9:\n              callvalue\n              dup1\n              iszero\n              tag_40\n              jumpi\n              0x00\n              dup1\n              revert\n            tag_40:\n              pop\n              tag_41\n              tag_42\n              jump\t// in\n            tag_41:\n              mload(0x40)\n              tag_43\n              swap2\n              swap1\n              tag_23\n              jump\t// in\n            tag_43:\n              mload(0x40)\n              dup1\n              swap2\n              sub\n              swap1\n              return\n                /* \"Transaction.sol\":2473:2783  function returnInformation()... */\n            tag_13:\n                /* \"Transaction.sol\":2550:2557  address */\n              0x00\n                /* \"Transaction.sol\":2559:2566  address */\n              dup1\n                /* \"Transaction.sol\":2568:2572  uint */\n              0x00\n                /* \"Transaction.sol\":2574:2578  bool */\n              dup1\n                /* \"Transaction.sol\":2580:2584  uint */\n              0x00\n                /* \"Transaction.sol\":2586:2590  uint */\n              dup1\n                /* \"Transaction.sol\":2630:2637  manager */\n              0x00\n              dup1\n              sload\n              swap1\n              0x0100\n              exp\n              swap1\n              div\n              0xffffffffffffffffffffffffffffffffffffffff\n              and\n                /* \"Transaction.sol\":2652:2660  receiver */\n              0x01\n              0x00\n              swap1\n              sload\n              swap1\n              0x0100\n              exp\n              swap1\n              div\n              0xffffffffffffffffffffffffffffffffffffffff\n              and\n                /* \"Transaction.sol\":2675:2681  amount */\n              sload(0x02)\n                /* \"Transaction.sol\":2696:2704  complete */\n              0x03\n              0x00\n              swap1\n              sload\n              swap1\n              0x0100\n              exp\n              swap1\n              div\n              0xff\n              and\n                /* \"Transaction.sol\":2719:2728  timestamp */\n              sload(0x04)\n                /* \"Transaction.sol\":2743:2764  address(this).balance */\n              selfbalance\n                /* \"Transaction.sol\":2608:2775  return (... */\n              swap6\n              pop\n              swap6\n              pop\n              swap6\n              pop\n              swap6\n              pop\n              swap6\n              pop\n              swap6\n              pop\n                /* \"Transaction.sol\":2473:2783  function returnInformation()... */\n              swap1\n              swap2\n              swap3\n              swap4\n              swap5\n              swap6\n              jump\t// out\n                /* \"Transaction.sol\":2020:2465  function withdraw() public onlyManager {... */\n            tag_18:\n                /* \"Transaction.sol\":951:958  manager */\n              0x00\n              dup1\n              sload\n              swap1\n              0x0100\n              exp\n              swap1\n              div\n              0xffffffffffffffffffffffffffffffffffffffff\n              and\n                /* \"Transaction.sol\":937:958  msg.sender == manager */\n              0xffffffffffffffffffffffffffffffffffffffff\n              and\n                /* \"Transaction.sol\":937:947  msg.sender */\n              caller\n                /* \"Transaction.sol\":937:958  msg.sender == manager */\n              0xffffffffffffffffffffffffffffffffffffffff\n              and\n              eq\n                /* \"Transaction.sol\":929:959  require(msg.sender == manager) */\n              tag_46\n              jumpi\n              0x00\n              dup1\n              revert\n            tag_46:\n                /* \"Transaction.sol\":2079:2087  complete */\n              0x03\n              0x00\n              swap1\n              sload\n              swap1\n              0x0100\n              exp\n              swap1\n              div\n              0xff\n              and\n                /* \"Transaction.sol\":2078:2087  !complete */\n              iszero\n                /* \"Transaction.sol\":2070:2121  require(!complete, \"Transaction already completed\") */\n              tag_48\n              jumpi\n              mload(0x40)\n              0x08c379a000000000000000000000000000000000000000000000000000000000\n              dup2\n              mstore\n              0x04\n              add\n              tag_49\n              swap1\n              tag_50\n              jump\t// in\n            tag_49:\n              mload(0x40)\n              dup1\n              swap2\n              sub\n              swap1\n              revert\n            tag_48:\n                /* \"Transaction.sol\":2229:2230  0 */\n              0x00\n                /* \"Transaction.sol\":2205:2226  address(this).balance */\n              selfbalance\n                /* \"Transaction.sol\":2205:2230  address(this).balance > 0 */\n              gt\n                /* \"Transaction.sol\":2183:2293  require(... */\n              tag_51\n              jumpi\n              mload(0x40)\n              0x08c379a000000000000000000000000000000000000000000000000000000000\n              dup2\n              mstore\n              0x04\n              add\n              tag_52\n              swap1\n              tag_53\n              jump\t// in\n            tag_52:\n              mload(0x40)\n              dup1\n              swap2\n              sub\n              swap1\n              revert\n            tag_51:\n                /* \"Transaction.sol\":2312:2319  manager */\n              0x00\n              dup1\n              sload\n              swap1\n              0x0100\n              exp\n              swap1\n              div\n              0xffffffffffffffffffffffffffffffffffffffff\n              and\n                /* \"Transaction.sol\":2304:2329  payable(manager).transfer */\n              0xffffffffffffffffffffffffffffffffffffffff\n              and\n                /* \"Transaction.sol\":2304:2352  payable(manager).transfer(address(this).balance) */\n              0x08fc\n                /* \"Transaction.sol\":2330:2351  address(this).balance */\n              selfbalance\n                /* \"Transaction.sol\":2304:2352  payable(manager).transfer(address(this).balance) */\n              swap1\n              dup2\n              iszero\n              mul\n              swap1\n              mload(0x40)\n              0x00\n              mload(0x40)\n              dup1\n              dup4\n              sub\n              dup2\n              dup6\n              dup9\n              dup9\n              call\n              swap4\n              pop\n              pop\n              pop\n              pop\n              iszero\n              dup1\n              iszero\n              tag_55\n              jumpi\n              returndatasize\n              0x00\n              dup1\n              returndatacopy\n              revert(0x00, returndatasize)\n            tag_55:\n              pop\n                /* \"Transaction.sol\":2374:2378  true */\n              0x01\n                /* \"Transaction.sol\":2363:2371  complete */\n              0x03\n              0x00\n                /* \"Transaction.sol\":2363:2378  complete = true */\n              0x0100\n              exp\n              dup2\n              sload\n              dup2\n              0xff\n              mul\n              not\n              and\n              swap1\n              dup4\n              iszero\n              iszero\n              mul\n              or\n              swap1\n              sstore\n              pop\n                /* \"Transaction.sol\":2394:2457  TransactionCompleted(manager, manager, amount, block.timestamp) */\n              0x394c4e679790fab24fd86614fd812811c9c835e4c475bdfc3d26fd0d6f7ca6fd\n                /* \"Transaction.sol\":2415:2422  manager */\n              0x00\n              dup1\n              sload\n              swap1\n              0x0100\n              exp\n              swap1\n              div\n              0xffffffffffffffffffffffffffffffffffffffff\n              and\n                /* \"Transaction.sol\":2424:2431  manager */\n              0x00\n              dup1\n              sload\n              swap1\n              0x0100\n              exp\n              swap1\n              div\n              0xffffffffffffffffffffffffffffffffffffffff\n              and\n                /* \"Transaction.sol\":2433:2439  amount */\n              sload(0x02)\n                /* \"Transaction.sol\":2441:2456  block.timestamp */\n              timestamp\n                /* \"Transaction.sol\":2394:2457  TransactionCompleted(manager, manager, amount, block.timestamp) */\n              mload(0x40)\n              tag_56\n              swap5\n              swap4\n              swap3\n              swap2\n              swap1\n              tag_57\n              jump\t// in\n            tag_56:\n              mload(0x40)\n              dup1\n              swap2\n              sub\n              swap1\n              log1\n                /* \"Transaction.sol\":2020:2465  function withdraw() public onlyManager {... */\n              jump\t// out\n                /* \"Transaction.sol\":754:776  address public manager */\n            tag_21:\n              0x00\n              dup1\n              sload\n              swap1\n              0x0100\n              exp\n              swap1\n              div\n              0xffffffffffffffffffffffffffffffffffffffff\n              and\n              dup2\n              jump\t// out\n                /* \"Transaction.sol\":838:858  bool public complete */\n            tag_26:\n              0x03\n              0x00\n              swap1\n              sload\n              swap1\n              0x0100\n              exp\n              swap1\n              div\n              0xff\n              and\n              dup2\n              jump\t// out\n                /* \"Transaction.sol\":813:831  uint public amount */\n            tag_31:\n              sload(0x02)\n              dup2\n              jump\t// out\n                /* \"Transaction.sol\":1561:2012  function send() public payable onlyManager {... */\n            tag_35:\n                /* \"Transaction.sol\":951:958  manager */\n              0x00\n              dup1\n              sload\n              swap1\n              0x0100\n              exp\n              swap1\n              div\n              0xffffffffffffffffffffffffffffffffffffffff\n              and\n                /* \"Transaction.sol\":937:958  msg.sender == manager */\n              0xffffffffffffffffffffffffffffffffffffffff\n              and\n                /* \"Transaction.sol\":937:947  msg.sender */\n              caller\n                /* \"Transaction.sol\":937:958  msg.sender == manager */\n              0xffffffffffffffffffffffffffffffffffffffff\n              and\n              eq\n                /* \"Transaction.sol\":929:959  require(msg.sender == manager) */\n              tag_59\n              jumpi\n              0x00\n              dup1\n              revert\n            tag_59:\n                /* \"Transaction.sol\":1624:1632  complete */\n              0x03\n              0x00\n              swap1\n              sload\n              swap1\n              0x0100\n              exp\n              swap1\n              div\n              0xff\n              and\n                /* \"Transaction.sol\":1623:1632  !complete */\n              iszero\n                /* \"Transaction.sol\":1615:1666  require(!complete, \"Transaction already completed\") */\n              tag_61\n              jumpi\n              mload(0x40)\n              0x08c379a000000000000000000000000000000000000000000000000000000000\n              dup2\n              mstore\n              0x04\n              add\n              tag_62\n              swap1\n              tag_50\n              jump\t// in\n            tag_62:\n              mload(0x40)\n              dup1\n              swap2\n              sub\n              swap1\n              revert\n            tag_61:\n                /* \"Transaction.sol\":1774:1775  0 */\n              0x00\n                /* \"Transaction.sol\":1750:1771  address(this).balance */\n              selfbalance\n                /* \"Transaction.sol\":1750:1775  address(this).balance > 0 */\n              gt\n                /* \"Transaction.sol\":1728:1838  require(... */\n              tag_63\n              jumpi\n              mload(0x40)\n              0x08c379a000000000000000000000000000000000000000000000000000000000\n              dup2\n              mstore\n              0x04\n              add\n              tag_64\n              swap1\n              tag_53\n              jump\t// in\n            tag_64:\n              mload(0x40)\n              dup1\n              swap2\n              sub\n              swap1\n              revert\n            tag_63:\n                /* \"Transaction.sol\":1857:1865  receiver */\n              0x01\n              0x00\n              swap1\n              sload\n              swap1\n              0x0100\n              exp\n              swap1\n              div\n              0xffffffffffffffffffffffffffffffffffffffff\n              and\n                /* \"Transaction.sol\":1849:1875  payable(receiver).transfer */\n              0xffffffffffffffffffffffffffffffffffffffff\n              and\n                /* \"Transaction.sol\":1849:1898  payable(receiver).transfer(address(this).balance) */\n              0x08fc\n                /* \"Transaction.sol\":1876:1897  address(this).balance */\n              selfbalance\n                /* \"Transaction.sol\":1849:1898  payable(receiver).transfer(address(this).balance) */\n              swap1\n              dup2\n              iszero\n              mul\n              swap1\n              mload(0x40)\n              0x00\n              mload(0x40)\n              dup1\n              dup4\n              sub\n              dup2\n              dup6\n              dup9\n              dup9\n              call\n              swap4\n              pop\n              pop\n              pop\n              pop\n              iszero\n              dup1\n              iszero\n              tag_66\n              jumpi\n              returndatasize\n              0x00\n              dup1\n              returndatacopy\n              revert(0x00, returndatasize)\n            tag_66:\n              pop\n                /* \"Transaction.sol\":1920:1924  true */\n              0x01\n                /* \"Transaction.sol\":1909:1917  complete */\n              0x03\n              0x00\n                /* \"Transaction.sol\":1909:1924  complete = true */\n              0x0100\n              exp\n              dup2\n              sload\n              dup2\n              0xff\n              mul\n              not\n              and\n              swap1\n              dup4\n              iszero\n              iszero\n              mul\n              or\n              swap1\n              sstore\n              pop\n                /* \"Transaction.sol\":1940:2004  TransactionCompleted(manager, receiver, amount, block.timestamp) */\n              0x394c4e679790fab24fd86614fd812811c9c835e4c475bdfc3d26fd0d6f7ca6fd\n                /* \"Transaction.sol\":1961:1968  manager */\n              0x00\n              dup1\n              sload\n              swap1\n              0x0100\n              exp\n              swap1\n              div\n              0xffffffffffffffffffffffffffffffffffffffff\n              and\n                /* \"Transaction.sol\":1970:1978  receiver */\n              0x01\n              0x00\n              swap1\n              sload\n              swap1\n              0x0100\n              exp\n              swap1\n              div\n              0xffffffffffffffffffffffffffffffffffffffff\n              and\n                /* \"Transaction.sol\":1980:1986  amount */\n              sload(0x02)\n                /* \"Transaction.sol\":1988:2003  block.timestamp */\n              timestamp\n                /* \"Transaction.sol\":1940:2004  TransactionCompleted(manager, receiver, amount, block.timestamp) */\n              mload(0x40)\n              tag_67\n              swap5\n              swap4\n              swap3\n              swap2\n              swap1\n              tag_57\n              jump\t// in\n            tag_67:\n              mload(0x40)\n              dup1\n              swap2\n              sub\n              swap1\n              log1\n                /* \"Transaction.sol\":1561:2012  function send() public payable onlyManager {... */\n              jump\t// out\n                /* \"Transaction.sol\":865:886  uint public timestamp */\n            tag_38:\n              sload(0x04)\n              dup2\n              jump\t// out\n                /* \"Transaction.sol\":783:806  address public receiver */\n            tag_42:\n              0x01\n              0x00\n              swap1\n              sload\n              swap1\n              0x0100\n              exp\n              swap1\n              div\n              0xffffffffffffffffffffffffffffffffffffffff\n              and\n              dup2\n              jump\t// out\n                /* \"#utility.yul\":7:133   */\n            tag_68:\n                /* \"#utility.yul\":44:51   */\n              0x00\n                /* \"#utility.yul\":84:126   */\n              0xffffffffffffffffffffffffffffffffffffffff\n                /* \"#utility.yul\":77:82   */\n              dup3\n                /* \"#utility.yul\":73:127   */\n              and\n                /* \"#utility.yul\":62:127   */\n              swap1\n              pop\n                /* \"#utility.yul\":7:133   */\n              swap2\n              swap1\n              pop\n              jump\t// out\n                /* \"#utility.yul\":139:235   */\n            tag_69:\n                /* \"#utility.yul\":176:183   */\n              0x00\n                /* \"#utility.yul\":205:229   */\n              tag_83\n                /* \"#utility.yul\":223:228   */\n              dup3\n                /* \"#utility.yul\":205:229   */\n              tag_68\n              jump\t// in\n            tag_83:\n                /* \"#utility.yul\":194:229   */\n              swap1\n              pop\n                /* \"#utility.yul\":139:235   */\n              swap2\n              swap1\n              pop\n              jump\t// out\n                /* \"#utility.yul\":241:359   */\n            tag_70:\n                /* \"#utility.yul\":328:352   */\n              tag_85\n                /* \"#utility.yul\":346:351   */\n              dup2\n                /* \"#utility.yul\":328:352   */\n              tag_69\n              jump\t// in\n            tag_85:\n                /* \"#utility.yul\":323:326   */\n              dup3\n                /* \"#utility.yul\":316:353   */\n              mstore\n                /* \"#utility.yul\":241:359   */\n              pop\n              pop\n              jump\t// out\n                /* \"#utility.yul\":365:442   */\n            tag_71:\n                /* \"#utility.yul\":402:409   */\n              0x00\n                /* \"#utility.yul\":431:436   */\n              dup2\n                /* \"#utility.yul\":420:436   */\n              swap1\n              pop\n                /* \"#utility.yul\":365:442   */\n              swap2\n              swap1\n              pop\n              jump\t// out\n                /* \"#utility.yul\":448:566   */\n            tag_72:\n                /* \"#utility.yul\":535:559   */\n              tag_88\n                /* \"#utility.yul\":553:558   */\n              dup2\n                /* \"#utility.yul\":535:559   */\n              tag_71\n              jump\t// in\n            tag_88:\n                /* \"#utility.yul\":530:533   */\n              dup3\n                /* \"#utility.yul\":523:560   */\n              mstore\n                /* \"#utility.yul\":448:566   */\n              pop\n              pop\n              jump\t// out\n                /* \"#utility.yul\":572:662   */\n            tag_73:\n                /* \"#utility.yul\":606:613   */\n              0x00\n                /* \"#utility.yul\":649:654   */\n              dup2\n                /* \"#utility.yul\":642:655   */\n              iszero\n                /* \"#utility.yul\":635:656   */\n              iszero\n                /* \"#utility.yul\":624:656   */\n              swap1\n              pop\n                /* \"#utility.yul\":572:662   */\n              swap2\n              swap1\n              pop\n              jump\t// out\n                /* \"#utility.yul\":668:777   */\n            tag_74:\n                /* \"#utility.yul\":749:770   */\n              tag_91\n                /* \"#utility.yul\":764:769   */\n              dup2\n                /* \"#utility.yul\":749:770   */\n              tag_73\n              jump\t// in\n            tag_91:\n                /* \"#utility.yul\":744:747   */\n              dup3\n                /* \"#utility.yul\":737:771   */\n              mstore\n                /* \"#utility.yul\":668:777   */\n              pop\n              pop\n              jump\t// out\n                /* \"#utility.yul\":783:1546   */\n            tag_15:\n                /* \"#utility.yul\":1010:1014   */\n              0x00\n                /* \"#utility.yul\":1048:1051   */\n              0xc0\n                /* \"#utility.yul\":1037:1046   */\n              dup3\n                /* \"#utility.yul\":1033:1052   */\n              add\n                /* \"#utility.yul\":1025:1052   */\n              swap1\n              pop\n                /* \"#utility.yul\":1062:1133   */\n              tag_93\n                /* \"#utility.yul\":1130:1131   */\n              0x00\n                /* \"#utility.yul\":1119:1128   */\n              dup4\n                /* \"#utility.yul\":1115:1132   */\n              add\n                /* \"#utility.yul\":1106:1112   */\n              dup10\n                /* \"#utility.yul\":1062:1133   */\n              tag_70\n              jump\t// in\n            tag_93:\n                /* \"#utility.yul\":1143:1215   */\n              tag_94\n                /* \"#utility.yul\":1211:1213   */\n              0x20\n                /* \"#utility.yul\":1200:1209   */\n              dup4\n                /* \"#utility.yul\":1196:1214   */\n              add\n                /* \"#utility.yul\":1187:1193   */\n              dup9\n                /* \"#utility.yul\":1143:1215   */\n              tag_70\n              jump\t// in\n            tag_94:\n                /* \"#utility.yul\":1225:1297   */\n              tag_95\n                /* \"#utility.yul\":1293:1295   */\n              0x40\n                /* \"#utility.yul\":1282:1291   */\n              dup4\n                /* \"#utility.yul\":1278:1296   */\n              add\n                /* \"#utility.yul\":1269:1275   */\n              dup8\n                /* \"#utility.yul\":1225:1297   */\n              tag_72\n              jump\t// in\n            tag_95:\n                /* \"#utility.yul\":1307:1373   */\n              tag_96\n                /* \"#utility.yul\":1369:1371   */\n              0x60\n                /* \"#utility.yul\":1358:1367   */\n              dup4\n                /* \"#utility.yul\":1354:1372   */\n              add\n                /* \"#utility.yul\":1345:1351   */\n              dup7\n                /* \"#utility.yul\":1307:1373   */\n              tag_74\n              jump\t// in\n            tag_96:\n                /* \"#utility.yul\":1383:1456   */\n              tag_97\n                /* \"#utility.yul\":1451:1454   */\n              0x80\n                /* \"#utility.yul\":1440:1449   */\n              dup4\n                /* \"#utility.yul\":1436:1455   */\n              add\n                /* \"#utility.yul\":1427:1433   */\n              dup6\n                /* \"#utility.yul\":1383:1456   */\n              tag_72\n              jump\t// in\n            tag_97:\n                /* \"#utility.yul\":1466:1539   */\n              tag_98\n                /* \"#utility.yul\":1534:1537   */\n              0xa0\n                /* \"#utility.yul\":1523:1532   */\n              dup4\n                /* \"#utility.yul\":1519:1538   */\n              add\n                /* \"#utility.yul\":1510:1516   */\n              dup5\n                /* \"#utility.yul\":1466:1539   */\n              tag_72\n              jump\t// in\n            tag_98:\n                /* \"#utility.yul\":783:1546   */\n              swap8\n              swap7\n              pop\n              pop\n              pop\n              pop\n              pop\n              pop\n              pop\n              jump\t// out\n                /* \"#utility.yul\":1552:1774   */\n            tag_23:\n                /* \"#utility.yul\":1645:1649   */\n              0x00\n                /* \"#utility.yul\":1683:1685   */\n              0x20\n                /* \"#utility.yul\":1672:1681   */\n              dup3\n                /* \"#utility.yul\":1668:1686   */\n              add\n                /* \"#utility.yul\":1660:1686   */\n              swap1\n              pop\n                /* \"#utility.yul\":1696:1767   */\n              tag_100\n                /* \"#utility.yul\":1764:1765   */\n              0x00\n                /* \"#utility.yul\":1753:1762   */\n              dup4\n                /* \"#utility.yul\":1749:1766   */\n              add\n                /* \"#utility.yul\":1740:1746   */\n              dup5\n                /* \"#utility.yul\":1696:1767   */\n              tag_70\n              jump\t// in\n            tag_100:\n                /* \"#utility.yul\":1552:1774   */\n              swap3\n              swap2\n              pop\n              pop\n              jump\t// out\n                /* \"#utility.yul\":1780:1990   */\n            tag_28:\n                /* \"#utility.yul\":1867:1871   */\n              0x00\n                /* \"#utility.yul\":1905:1907   */\n              0x20\n                /* \"#utility.yul\":1894:1903   */\n              dup3\n                /* \"#utility.yul\":1890:1908   */\n              add\n                /* \"#utility.yul\":1882:1908   */\n              swap1\n              pop\n                /* \"#utility.yul\":1918:1983   */\n              tag_102\n                /* \"#utility.yul\":1980:1981   */\n              0x00\n                /* \"#utility.yul\":1969:1978   */\n              dup4\n                /* \"#utility.yul\":1965:1982   */\n              add\n                /* \"#utility.yul\":1956:1962   */\n              dup5\n                /* \"#utility.yul\":1918:1983   */\n              tag_74\n              jump\t// in\n            tag_102:\n                /* \"#utility.yul\":1780:1990   */\n              swap3\n              swap2\n              pop\n              pop\n              jump\t// out\n                /* \"#utility.yul\":1996:2218   */\n            tag_33:\n                /* \"#utility.yul\":2089:2093   */\n              0x00\n                /* \"#utility.yul\":2127:2129   */\n              0x20\n                /* \"#utility.yul\":2116:2125   */\n              dup3\n                /* \"#utility.yul\":2112:2130   */\n              add\n                /* \"#utility.yul\":2104:2130   */\n              swap1\n              pop\n                /* \"#utility.yul\":2140:2211   */\n              tag_104\n                /* \"#utility.yul\":2208:2209   */\n              0x00\n                /* \"#utility.yul\":2197:2206   */\n              dup4\n                /* \"#utility.yul\":2193:2210   */\n              add\n                /* \"#utility.yul\":2184:2190   */\n              dup5\n                /* \"#utility.yul\":2140:2211   */\n              tag_72\n              jump\t// in\n            tag_104:\n                /* \"#utility.yul\":1996:2218   */\n              swap3\n              swap2\n              pop\n              pop\n              jump\t// out\n                /* \"#utility.yul\":2224:2393   */\n            tag_75:\n                /* \"#utility.yul\":2308:2319   */\n              0x00\n                /* \"#utility.yul\":2342:2348   */\n              dup3\n                /* \"#utility.yul\":2337:2340   */\n              dup3\n                /* \"#utility.yul\":2330:2349   */\n              mstore\n                /* \"#utility.yul\":2382:2386   */\n              0x20\n                /* \"#utility.yul\":2377:2380   */\n              dup3\n                /* \"#utility.yul\":2373:2387   */\n              add\n                /* \"#utility.yul\":2358:2387   */\n              swap1\n              pop\n                /* \"#utility.yul\":2224:2393   */\n              swap3\n              swap2\n              pop\n              pop\n              jump\t// out\n                /* \"#utility.yul\":2399:2578   */\n            tag_76:\n                /* \"#utility.yul\":2539:2570   */\n              0x5472616e73616374696f6e20616c726561647920636f6d706c65746564000000\n                /* \"#utility.yul\":2535:2536   */\n              0x00\n                /* \"#utility.yul\":2527:2533   */\n              dup3\n                /* \"#utility.yul\":2523:2537   */\n              add\n                /* \"#utility.yul\":2516:2571   */\n              mstore\n                /* \"#utility.yul\":2399:2578   */\n              pop\n              jump\t// out\n                /* \"#utility.yul\":2584:2950   */\n            tag_77:\n                /* \"#utility.yul\":2726:2729   */\n              0x00\n                /* \"#utility.yul\":2747:2814   */\n              tag_108\n                /* \"#utility.yul\":2811:2813   */\n              0x1d\n                /* \"#utility.yul\":2806:2809   */\n              dup4\n                /* \"#utility.yul\":2747:2814   */\n              tag_75\n              jump\t// in\n            tag_108:\n                /* \"#utility.yul\":2740:2814   */\n              swap2\n              pop\n                /* \"#utility.yul\":2823:2916   */\n              tag_109\n                /* \"#utility.yul\":2912:2915   */\n              dup3\n                /* \"#utility.yul\":2823:2916   */\n              tag_76\n              jump\t// in\n            tag_109:\n                /* \"#utility.yul\":2941:2943   */\n              0x20\n                /* \"#utility.yul\":2936:2939   */\n              dup3\n                /* \"#utility.yul\":2932:2944   */\n              add\n                /* \"#utility.yul\":2925:2944   */\n              swap1\n              pop\n                /* \"#utility.yul\":2584:2950   */\n              swap2\n              swap1\n              pop\n              jump\t// out\n                /* \"#utility.yul\":2956:3375   */\n            tag_50:\n                /* \"#utility.yul\":3122:3126   */\n              0x00\n                /* \"#utility.yul\":3160:3162   */\n              0x20\n                /* \"#utility.yul\":3149:3158   */\n              dup3\n                /* \"#utility.yul\":3145:3163   */\n              add\n                /* \"#utility.yul\":3137:3163   */\n              swap1\n              pop\n                /* \"#utility.yul\":3209:3218   */\n              dup2\n                /* \"#utility.yul\":3203:3207   */\n              dup2\n                /* \"#utility.yul\":3199:3219   */\n              sub\n                /* \"#utility.yul\":3195:3196   */\n              0x00\n                /* \"#utility.yul\":3184:3193   */\n              dup4\n                /* \"#utility.yul\":3180:3197   */\n              add\n                /* \"#utility.yul\":3173:3220   */\n              mstore\n                /* \"#utility.yul\":3237:3368   */\n              tag_111\n                /* \"#utility.yul\":3363:3367   */\n              dup2\n                /* \"#utility.yul\":3237:3368   */\n              tag_77\n              jump\t// in\n            tag_111:\n                /* \"#utility.yul\":3229:3368   */\n              swap1\n              pop\n                /* \"#utility.yul\":2956:3375   */\n              swap2\n              swap1\n              pop\n              jump\t// out\n                /* \"#utility.yul\":3381:3603   */\n            tag_78:\n                /* \"#utility.yul\":3521:3555   */\n              0x54686520436f6e747261637420446f65736e2774206b65657020616e79206d6f\n                /* \"#utility.yul\":3517:3518   */\n              0x00\n                /* \"#utility.yul\":3509:3515   */\n              dup3\n                /* \"#utility.yul\":3505:3519   */\n              add\n                /* \"#utility.yul\":3498:3556   */\n              mstore\n                /* \"#utility.yul\":3590:3595   */\n              0x6e65790000000000000000000000000000000000000000000000000000000000\n                /* \"#utility.yul\":3585:3587   */\n              0x20\n                /* \"#utility.yul\":3577:3583   */\n              dup3\n                /* \"#utility.yul\":3573:3588   */\n              add\n                /* \"#utility.yul\":3566:3596   */\n              mstore\n                /* \"#utility.yul\":3381:3603   */\n              pop\n              jump\t// out\n                /* \"#utility.yul\":3609:3975   */\n            tag_79:\n                /* \"#utility.yul\":3751:3754   */\n              0x00\n                /* \"#utility.yul\":3772:3839   */\n              tag_114\n                /* \"#utility.yul\":3836:3838   */\n              0x23\n                /* \"#utility.yul\":3831:3834   */\n              dup4\n                /* \"#utility.yul\":3772:3839   */\n              tag_75\n              jump\t// in\n            tag_114:\n                /* \"#utility.yul\":3765:3839   */\n              swap2\n              pop\n                /* \"#utility.yul\":3848:3941   */\n              tag_115\n                /* \"#utility.yul\":3937:3940   */\n              dup3\n                /* \"#utility.yul\":3848:3941   */\n              tag_78\n              jump\t// in\n            tag_115:\n                /* \"#utility.yul\":3966:3968   */\n              0x40\n                /* \"#utility.yul\":3961:3964   */\n              dup3\n                /* \"#utility.yul\":3957:3969   */\n              add\n                /* \"#utility.yul\":3950:3969   */\n              swap1\n              pop\n                /* \"#utility.yul\":3609:3975   */\n              swap2\n              swap1\n              pop\n              jump\t// out\n                /* \"#utility.yul\":3981:4400   */\n            tag_53:\n                /* \"#utility.yul\":4147:4151   */\n              0x00\n                /* \"#utility.yul\":4185:4187   */\n              0x20\n                /* \"#utility.yul\":4174:4183   */\n              dup3\n                /* \"#utility.yul\":4170:4188   */\n              add\n                /* \"#utility.yul\":4162:4188   */\n              swap1\n              pop\n                /* \"#utility.yul\":4234:4243   */\n              dup2\n                /* \"#utility.yul\":4228:4232   */\n              dup2\n                /* \"#utility.yul\":4224:4244   */\n              sub\n                /* \"#utility.yul\":4220:4221   */\n              0x00\n                /* \"#utility.yul\":4209:4218   */\n              dup4\n                /* \"#utility.yul\":4205:4222   */\n              add\n                /* \"#utility.yul\":4198:4245   */\n              mstore\n                /* \"#utility.yul\":4262:4393   */\n              tag_117\n                /* \"#utility.yul\":4388:4392   */\n              dup2\n                /* \"#utility.yul\":4262:4393   */\n              tag_79\n              jump\t// in\n            tag_117:\n                /* \"#utility.yul\":4254:4393   */\n              swap1\n              pop\n                /* \"#utility.yul\":3981:4400   */\n              swap2\n              swap1\n              pop\n              jump\t// out\n                /* \"#utility.yul\":4406:4959   */\n            tag_57:\n                /* \"#utility.yul\":4583:4587   */\n              0x00\n                /* \"#utility.yul\":4621:4624   */\n              0x80\n                /* \"#utility.yul\":4610:4619   */\n              dup3\n                /* \"#utility.yul\":4606:4625   */\n              add\n                /* \"#utility.yul\":4598:4625   */\n              swap1\n              pop\n                /* \"#utility.yul\":4635:4706   */\n              tag_119\n                /* \"#utility.yul\":4703:4704   */\n              0x00\n                /* \"#utility.yul\":4692:4701   */\n              dup4\n                /* \"#utility.yul\":4688:4705   */\n              add\n                /* \"#utility.yul\":4679:4685   */\n              dup8\n                /* \"#utility.yul\":4635:4706   */\n              tag_70\n              jump\t// in\n            tag_119:\n                /* \"#utility.yul\":4716:4788   */\n              tag_120\n                /* \"#utility.yul\":4784:4786   */\n              0x20\n                /* \"#utility.yul\":4773:4782   */\n              dup4\n                /* \"#utility.yul\":4769:4787   */\n              add\n                /* \"#utility.yul\":4760:4766   */\n              dup7\n                /* \"#utility.yul\":4716:4788   */\n              tag_70\n              jump\t// in\n            tag_120:\n                /* \"#utility.yul\":4798:4870   */\n              tag_121\n                /* \"#utility.yul\":4866:4868   */\n              0x40\n                /* \"#utility.yul\":4855:4864   */\n              dup4\n                /* \"#utility.yul\":4851:4869   */\n              add\n                /* \"#utility.yul\":4842:4848   */\n              dup6\n                /* \"#utility.yul\":4798:4870   */\n              tag_72\n              jump\t// in\n            tag_121:\n                /* \"#utility.yul\":4880:4952   */\n              tag_122\n                /* \"#utility.yul\":4948:4950   */\n              0x60\n                /* \"#utility.yul\":4937:4946   */\n              dup4\n                /* \"#utility.yul\":4933:4951   */\n              add\n                /* \"#utility.yul\":4924:4930   */\n              dup5\n                /* \"#utility.yul\":4880:4952   */\n              tag_72\n              jump\t// in\n            tag_122:\n                /* \"#utility.yul\":4406:4959   */\n              swap6\n              swap5\n              pop\n              pop\n              pop\n              pop\n              pop\n              jump\t// out\n\n            auxdata: 0xa2646970667358221220b0056529be2cb6f2a39d1454f475a2d25172dc411be4aac553cf1c83e24e2cb064736f6c63430008180033\n        }\n    }\n\n    auxdata: 0xa264697066735822122074d81ab3d23d8f17da1a6a94abf1641285ff47752c69fa09cfc5b9ff48eacf5664736f6c63430008180033\n}\n","bytecode":{"linkReferences":{},"object":"608060405234801561000f575f80fd5b506110388061001d5f395ff3fe608060405260043610610033575f3560e01c80637cf4c54314610037578063e17036f414610053578063f4d79e6c1461008f575b5f80fd5b610051600480360381019061004c919061033d565b6100b9565b005b34801561005e575f80fd5b506100796004803603810190610074919061037b565b6101db565b60405161008691906103b5565b60405180910390f35b34801561009a575f80fd5b506100a3610215565b6040516100b09190610485565b60405180910390f35b5f82116100fb576040517f08c379a00000000000000000000000000000000000000000000000000000000081526004016100f2906104ff565b60405180910390fd5b8134101561013e576040517f08c379a000000000000000000000000000000000000000000000000000000000815260040161013590610567565b60405180910390fd5b5f82338360405161014e9061029f565b610159929190610585565b6040518091039082f0905080158015610174573d5f803e3d5ffd5b5090505f81908060018154018082558091505060019003905f5260205f20015f9091909190916101000a81548173ffffffffffffffffffffffffffffffffffffffff021916908373ffffffffffffffffffffffffffffffffffffffff160217905550505050565b5f81815481106101e9575f80fd5b905f5260205f20015f915054906101000a900473ffffffffffffffffffffffffffffffffffffffff1681565b60605f80548060200260200160405190810160405280929190818152602001828054801561029557602002820191905f5260205f20905b815f9054906101000a900473ffffffffffffffffffffffffffffffffffffffff1673ffffffffffffffffffffffffffffffffffffffff168152602001906001019080831161024c575b5050505050905090565b610a56806105ad83390190565b5f80fd5b5f819050919050565b6102c2816102b0565b81146102cc575f80fd5b50565b5f813590506102dd816102b9565b92915050565b5f73ffffffffffffffffffffffffffffffffffffffff82169050919050565b5f61030c826102e3565b9050919050565b61031c81610302565b8114610326575f80fd5b50565b5f8135905061033781610313565b92915050565b5f8060408385031215610353576103526102ac565b5b5f610360858286016102cf565b925050602061037185828601610329565b9150509250929050565b5f602082840312156103905761038f6102ac565b5b5f61039d848285016102cf565b91505092915050565b6103af81610302565b82525050565b5f6020820190506103c85f8301846103a6565b92915050565b5f81519050919050565b5f82825260208201905092915050565b5f819050602082019050919050565b61040081610302565b82525050565b5f61041183836103f7565b60208301905092915050565b5f602082019050919050565b5f610433826103ce565b61043d81856103d8565b9350610448836103e8565b805f5b8381101561047857815161045f8882610406565b975061046a8361041d565b92505060018101905061044b565b5085935050505092915050565b5f6020820190508181035f83015261049d8184610429565b905092915050565b5f82825260208201905092915050565b7f416d6f756e74206d7573742062652067726561746572207468616e20300000005f82015250565b5f6104e9601d836104a5565b91506104f4826104b5565b602082019050919050565b5f6020820190508181035f830152610516816104dd565b9050919050565b7f496e73756666696369656e742045746865722073656e740000000000000000005f82015250565b5f6105516017836104a5565b915061055c8261051d565b602082019050919050565b5f6020820190508181035f83015261057e81610545565b9050919050565b5f6040820190506105985f8301856103a6565b6105a560208301846103a6565b939250505056fe6080604052604051610a56380380610a5683398181016040528101906100259190610130565b815f806101000a81548173ffffffffffffffffffffffffffffffffffffffff021916908373ffffffffffffffffffffffffffffffffffffffff1602179055508060015f6101000a81548173ffffffffffffffffffffffffffffffffffffffff021916908373ffffffffffffffffffffffffffffffffffffffff160217905550346002819055505f60035f6101000a81548160ff02191690831515021790555042600481905550505061016e565b5f80fd5b5f73ffffffffffffffffffffffffffffffffffffffff82169050919050565b5f6100ff826100d6565b9050919050565b61010f816100f5565b8114610119575f80fd5b50565b5f8151905061012a81610106565b92915050565b5f8060408385031215610146576101456100d2565b5b5f6101538582860161011c565b92505060206101648582860161011c565b9150509250929050565b6108db8061017b5f395ff3fe60806040526004361061007a575f3560e01c8063aa8c217c1161004d578063aa8c217c14610117578063b46300ec14610141578063b80777ea1461014b578063f7260d3e146101755761007a565b80633cbe83631461007e5780633ccfd60b146100ad578063481c6a75146100c3578063522e1177146100ed575b5f80fd5b348015610089575f80fd5b5061009261019f565b6040516100a4969594939291906106b2565b60405180910390f35b3480156100b8575f80fd5b506100c1610211565b005b3480156100ce575f80fd5b506100d76103f4565b6040516100e49190610711565b60405180910390f35b3480156100f8575f80fd5b50610101610417565b60405161010e919061072a565b60405180910390f35b348015610122575f80fd5b5061012b610429565b6040516101389190610743565b60405180910390f35b61014961042f565b005b348015610156575f80fd5b5061015f610616565b60405161016c9190610743565b60405180910390f35b348015610180575f80fd5b5061018961061c565b6040516101969190610711565b60405180910390f35b5f805f805f805f8054906101000a900473ffffffffffffffffffffffffffffffffffffffff1660015f9054906101000a900473ffffffffffffffffffffffffffffffffffffffff1660025460035f9054906101000a900460ff1660045447955095509550955095509550909192939495565b5f8054906101000a900473ffffffffffffffffffffffffffffffffffffffff1673ffffffffffffffffffffffffffffffffffffffff163373ffffffffffffffffffffffffffffffffffffffff1614610267575f80fd5b60035f9054906101000a900460ff16156102b6576040517f08c379a00000000000000000000000000000000000000000000000000000000081526004016102ad906107b6565b60405180910390fd5b5f47116102f8576040517f08c379a00000000000000000000000000000000000000000000000000000000081526004016102ef90610844565b60405180910390fd5b5f8054906101000a900473ffffffffffffffffffffffffffffffffffffffff1673ffffffffffffffffffffffffffffffffffffffff166108fc4790811502906040515f60405180830381858888f1935050505015801561035a573d5f803e3d5ffd5b50600160035f6101000a81548160ff0219169083151502179055507f394c4e679790fab24fd86614fd812811c9c835e4c475bdfc3d26fd0d6f7ca6fd5f8054906101000a900473ffffffffffffffffffffffffffffffffffffffff165f8054906101000a900473ffffffffffffffffffffffffffffffffffffffff16600254426040516103ea9493929190610862565b60405180910390a1565b5f8054906101000a900473ffffffffffffffffffffffffffffffffffffffff1681565b60035f9054906101000a900460ff1681565b60025481565b5f8054906101000a900473ffffffffffffffffffffffffffffffffffffffff1673ffffffffffffffffffffffffffffffffffffffff163373ffffffffffffffffffffffffffffffffffffffff1614610485575f80fd5b60035f9054906101000a900460ff16156104d4576040517f08c379a00000000000000000000000000000000000000000000000000000000081526004016104cb906107b6565b60405180910390fd5b5f4711610516576040517f08c379a000000000000000000000000000000000000000000000000000000000815260040161050d90610844565b60405180910390fd5b60015f9054906101000a900473ffffffffffffffffffffffffffffffffffffffff1673ffffffffffffffffffffffffffffffffffffffff166108fc4790811502906040515f60405180830381858888f1935050505015801561057a573d5f803e3d5ffd5b50600160035f6101000a81548160ff0219169083151502179055507f394c4e679790fab24fd86614fd812811c9c835e4c475bdfc3d26fd0d6f7ca6fd5f8054906101000a900473ffffffffffffffffffffffffffffffffffffffff1660015f9054906101000a900473ffffffffffffffffffffffffffffffffffffffff166002544260405161060c9493929190610862565b60405180910390a1565b60045481565b60015f9054906101000a900473ffffffffffffffffffffffffffffffffffffffff1681565b5f73ffffffffffffffffffffffffffffffffffffffff82169050919050565b5f61066a82610641565b9050919050565b61067a81610660565b82525050565b5f819050919050565b61069281610680565b82525050565b5f8115159050919050565b6106ac81610698565b82525050565b5f60c0820190506106c55f830189610671565b6106d26020830188610671565b6106df6040830187610689565b6106ec60608301866106a3565b6106f96080830185610689565b61070660a0830184610689565b979650505050505050565b5f6020820190506107245f830184610671565b92915050565b5f60208201905061073d5f8301846106a3565b92915050565b5f6020820190506107565f830184610689565b92915050565b5f82825260208201905092915050565b7f5472616e73616374696f6e20616c726561647920636f6d706c657465640000005f82015250565b5f6107a0601d8361075c565b91506107ab8261076c565b602082019050919050565b5f6020820190508181035f8301526107cd81610794565b9050919050565b7f54686520436f6e747261637420446f65736e2774206b65657020616e79206d6f5f8201527f6e65790000000000000000000000000000000000000000000000000000000000602082015250565b5f61082e60238361075c565b9150610839826107d4565b604082019050919050565b5f6020820190508181035f83015261085b81610822565b9050919050565b5f6080820190506108755f830187610671565b6108826020830186610671565b61088f6040830185610689565b61089c6060830184610689565b9594505050505056fea2646970667358221220b0056529be2cb6f2a39d1454f475a2d25172dc411be4aac553cf1c83e24e2cb064736f6c63430008180033a264697066735822122074d81ab3d23d8f17da1a6a94abf1641285ff47752c69fa09cfc5b9ff48eacf5664736f6c63430008180033","opcodes":"PUSH1 0x80 PUSH1 0x40 MSTORE CALLVALUE DUP1 ISZERO PUSH2 0xF JUMPI PUSH0 DUP1 REVERT JUMPDEST POP PUSH2 0x1038 DUP1 PUSH2 0x1D PUSH0 CODECOPY PUSH0 RETURN INVALID PUSH1 0x80 PUSH1 0x40 MSTORE PUSH1 0x4 CALLDATASIZE LT PUSH2 0x33 JUMPI PUSH0 CALLDATALOAD PUSH1 0xE0 SHR DUP1 PUSH4 0x7CF4C543 EQ PUSH2 0x37 JUMPI DUP1 PUSH4 0xE17036F4 EQ PUSH2 0x53 JUMPI DUP1 PUSH4 0xF4D79E6C EQ PUSH2 0x8F JUMPI JUMPDEST PUSH0 DUP1 REVERT JUMPDEST PUSH2 0x51 PUSH1 0x4 DUP1 CALLDATASIZE SUB DUP2 ADD SWAP1 PUSH2 0x4C SWAP2 SWAP1 PUSH2 0x33D JUMP JUMPDEST PUSH2 0xB9 JUMP JUMPDEST STOP JUMPDEST CALLVALUE DUP1 ISZERO PUSH2 0x5E JUMPI PUSH0 DUP1 REVERT JUMPDEST POP PUSH2 0x79 PUSH1 0x4 DUP1 CALLDATASIZE SUB DUP2 ADD SWAP1 PUSH2 0x74 SWAP2 SWAP1 PUSH2 0x37B JUMP JUMPDEST PUSH2 0x1DB JUMP JUMPDEST PUSH1 0x40 MLOAD PUSH2 0x86 SWAP2 SWAP1 PUSH2 0x3B5 JUMP JUMPDEST PUSH1 0x40 MLOAD DUP1 SWAP2 SUB SWAP1 RETURN JUMPDEST CALLVALUE DUP1 ISZERO PUSH2 0x9A JUMPI PUSH0 DUP1 REVERT JUMPDEST POP PUSH2 0xA3 PUSH2 0x215 JUMP JUMPDEST PUSH1 0x40 MLOAD PUSH2 0xB0 SWAP2 SWAP1 PUSH2 0x485 JUMP JUMPDEST PUSH1 0x40 MLOAD DUP1 SWAP2 SUB SWAP1 RETURN JUMPDEST PUSH0 DUP3 GT PUSH2 0xFB JUMPI PUSH1 0x40 MLOAD PUSH32 0x8C379A000000000000000000000000000000000000000000000000000000000 DUP2 MSTORE PUSH1 0x4 ADD PUSH2 0xF2 SWAP1 PUSH2 0x4FF JUMP JUMPDEST PUSH1 0x40 MLOAD DUP1 SWAP2 SUB SWAP1 REVERT JUMPDEST DUP2 CALLVALUE LT ISZERO PUSH2 0x13E JUMPI PUSH1 0x40 MLOAD PUSH32 0x8C379A000000000000000000000000000000000000000000000000000000000 DUP2 MSTORE PUSH1 0x4 ADD PUSH2 0x135 SWAP1 PUSH2 0x567 JUMP JUMPDEST PUSH1 0x40 MLOAD DUP1 SWAP2 SUB SWAP1 REVERT JUMPDEST PUSH0 DUP3 CALLER DUP4 PUSH1 0x40 MLOAD PUSH2 0x14E SWAP1 PUSH2 0x29F JUMP JUMPDEST PUSH2 0x159 SWAP3 SWAP2 SWAP1 PUSH2 0x585 JUMP JUMPDEST PUSH1 0x40 MLOAD DUP1 SWAP2 SUB SWAP1 DUP3 CREATE SWAP1 POP DUP1 ISZERO DUP1 ISZERO PUSH2 0x174 JUMPI RETURNDATASIZE PUSH0 DUP1 RETURNDATACOPY RETURNDATASIZE PUSH0 REVERT JUMPDEST POP SWAP1 POP PUSH0 DUP2 SWAP1 DUP1 PUSH1 0x1 DUP2 SLOAD ADD DUP1 DUP3 SSTORE DUP1 SWAP2 POP POP PUSH1 0x1 SWAP1 SUB SWAP1 PUSH0 MSTORE PUSH1 0x20 PUSH0 KECCAK256 ADD PUSH0 SWAP1 SWAP2 SWAP1 SWAP2 SWAP1 SWAP2 PUSH2 0x100 EXP DUP2 SLOAD DUP2 PUSH20 0xFFFFFFFFFFFFFFFFFFFFFFFFFFFFFFFFFFFFFFFF MUL NOT AND SWAP1 DUP4 PUSH20 0xFFFFFFFFFFFFFFFFFFFFFFFFFFFFFFFFFFFFFFFF AND MUL OR SWAP1 SSTORE POP POP POP POP JUMP JUMPDEST PUSH0 DUP2 DUP2 SLOAD DUP2 LT PUSH2 0x1E9 JUMPI PUSH0 DUP1 REVERT JUMPDEST SWAP1 PUSH0 MSTORE PUSH1 0x20 PUSH0 KECCAK256 ADD PUSH0 SWAP2 POP SLOAD SWAP1 PUSH2 0x100 EXP SWAP1 DIV PUSH20 0xFFFFFFFFFFFFFFFFFFFFFFFFFFFFFFFFFFFFFFFF AND DUP2 JUMP JUMPDEST PUSH1 0x60 PUSH0 DUP1 SLOAD DUP1 PUSH1 0x20 MUL PUSH1 0x20 ADD PUSH1 0x40 MLOAD SWAP1 DUP2 ADD PUSH1 0x40 MSTORE DUP1 SWAP3 SWAP2 SWAP1 DUP2 DUP2 MSTORE PUSH1 0x20 ADD DUP3 DUP1 SLOAD DUP1 ISZERO PUSH2 0x295 JUMPI PUSH1 0x20 MUL DUP3 ADD SWAP2 SWAP1 PUSH0 MSTORE PUSH1 0x20 PUSH0 KECCAK256 SWAP1 JUMPDEST DUP2 PUSH0 SWAP1 SLOAD SWAP1 PUSH2 0x100 EXP SWAP1 DIV PUSH20 0xFFFFFFFFFFFFFFFFFFFFFFFFFFFFFFFFFFFFFFFF AND PUSH20 0xFFFFFFFFFFFFFFFFFFFFFFFFFFFFFFFFFFFFFFFF AND DUP2 MSTORE PUSH1 0x20 ADD SWAP1 PUSH1 0x1 ADD SWAP1 DUP1 DUP4 GT PUSH2 0x24C JUMPI JUMPDEST POP POP POP POP POP SWAP1 POP SWAP1 JUMP JUMPDEST PUSH2 0xA56 DUP1 PUSH2 0x5AD DUP4 CODECOPY ADD SWAP1 JUMP JUMPDEST PUSH0 DUP1 REVERT JUMPDEST PUSH0 DUP2 SWAP1 POP SWAP2 SWAP1 POP JUMP JUMPDEST PUSH2 0x2C2 DUP2 PUSH2 0x2B0 JUMP JUMPDEST DUP2 EQ PUSH2 0x2CC JUMPI PUSH0 DUP1 REVERT JUMPDEST POP JUMP JUMPDEST PUSH0 DUP2 CALLDATALOAD SWAP1 POP PUSH2 0x2DD DUP2 PUSH2 0x2B9 JUMP JUMPDEST SWAP3 SWAP2 POP POP JUMP JUMPDEST PUSH0 PUSH20 0xFFFFFFFFFFFFFFFFFFFFFFFFFFFFFFFFFFFFFFFF DUP3 AND SWAP1 POP SWAP2 SWAP1 POP JUMP JUMPDEST PUSH0 PUSH2 0x30C DUP3 PUSH2 0x2E3 JUMP JUMPDEST SWAP1 POP SWAP2 SWAP1 POP JUMP JUMPDEST PUSH2 0x31C DUP2 PUSH2 0x302 JUMP JUMPDEST DUP2 EQ PUSH2 0x326 JUMPI PUSH0 DUP1 REVERT JUMPDEST POP JUMP JUMPDEST PUSH0 DUP2 CALLDATALOAD SWAP1 POP PUSH2 0x337 DUP2 PUSH2 0x313 JUMP JUMPDEST SWAP3 SWAP2 POP POP JUMP JUMPDEST PUSH0 DUP1 PUSH1 0x40 DUP4 DUP6 SUB SLT ISZERO PUSH2 0x353 JUMPI PUSH2 0x352 PUSH2 0x2AC JUMP JUMPDEST JUMPDEST PUSH0 PUSH2 0x360 DUP6 DUP3 DUP7 ADD PUSH2 0x2CF JUMP JUMPDEST SWAP3 POP POP PUSH1 0x20 PUSH2 0x371 DUP6 DUP3 DUP7 ADD PUSH2 0x329 JUMP JUMPDEST SWAP2 POP POP SWAP3 POP SWAP3 SWAP1 POP JUMP JUMPDEST PUSH0 PUSH1 0x20 DUP3 DUP5 SUB SLT ISZERO PUSH2 0x390 JUMPI PUSH2 0x38F PUSH2 0x2AC JUMP JUMPDEST JUMPDEST PUSH0 PUSH2 0x39D DUP5 DUP3 DUP6 ADD PUSH2 0x2CF JUMP JUMPDEST SWAP2 POP POP SWAP3 SWAP2 POP POP JUMP JUMPDEST PUSH2 0x3AF DUP2 PUSH2 0x302 JUMP JUMPDEST DUP3 MSTORE POP POP JUMP JUMPDEST PUSH0 PUSH1 0x20 DUP3 ADD SWAP1 POP PUSH2 0x3C8 PUSH0 DUP4 ADD DUP5 PUSH2 0x3A6 JUMP JUMPDEST SWAP3 SWAP2 POP POP JUMP JUMPDEST PUSH0 DUP2 MLOAD SWAP1 POP SWAP2 SWAP1 POP JUMP JUMPDEST PUSH0 DUP3 DUP3 MSTORE PUSH1 0x20 DUP3 ADD SWAP1 POP SWAP3 SWAP2 POP POP JUMP JUMPDEST PUSH0 DUP2 SWAP1 POP PUSH1 0x20 DUP3 ADD SWAP1 POP SWAP2 SWAP1 POP JUMP JUMPDEST PUSH2 0x400 DUP2 PUSH2 0x302 JUMP JUMPDEST DUP3 MSTORE POP POP JUMP JUMPDEST PUSH0 PUSH2 0x411 DUP4 DUP4 PUSH2 0x3F7 JUMP JUMPDEST PUSH1 0x20 DUP4 ADD SWAP1 POP SWAP3 SWAP2 POP POP JUMP JUMPDEST PUSH0 PUSH1 0x20 DUP3 ADD SWAP1 POP SWAP2 SWAP1 POP JUMP JUMPDEST PUSH0 PUSH2 0x433 DUP3 PUSH2 0x3CE JUMP JUMPDEST PUSH2 0x43D DUP2 DUP6 PUSH2 0x3D8 JUMP JUMPDEST SWAP4 POP PUSH2 0x448 DUP4 PUSH2 0x3E8 JUMP JUMPDEST DUP1 PUSH0 JUMPDEST DUP4 DUP2 LT ISZERO PUSH2 0x478 JUMPI DUP2 MLOAD PUSH2 0x45F DUP9 DUP3 PUSH2 0x406 JUMP JUMPDEST SWAP8 POP PUSH2 0x46A DUP4 PUSH2 0x41D JUMP JUMPDEST SWAP3 POP POP PUSH1 0x1 DUP2 ADD SWAP1 POP PUSH2 0x44B JUMP JUMPDEST POP DUP6 SWAP4 POP POP POP POP SWAP3 SWAP2 POP POP JUMP JUMPDEST PUSH0 PUSH1 0x20 DUP3 ADD SWAP1 POP DUP2 DUP2 SUB PUSH0 DUP4 ADD MSTORE PUSH2 0x49D DUP2 DUP5 PUSH2 0x429 JUMP JUMPDEST SWAP1 POP SWAP3 SWAP2 POP POP JUMP JUMPDEST PUSH0 DUP3 DUP3 MSTORE PUSH1 0x20 DUP3 ADD SWAP1 POP SWAP3 SWAP2 POP POP JUMP JUMPDEST PUSH32 0x416D6F756E74206D7573742062652067726561746572207468616E2030000000 PUSH0 DUP3 ADD MSTORE POP JUMP JUMPDEST PUSH0 PUSH2 0x4E9 PUSH1 0x1D DUP4 PUSH2 0x4A5 JUMP JUMPDEST SWAP2 POP PUSH2 0x4F4 DUP3 PUSH2 0x4B5 JUMP JUMPDEST PUSH1 0x20 DUP3 ADD SWAP1 POP SWAP2 SWAP1 POP JUMP JUMPDEST PUSH0 PUSH1 0x20 DUP3 ADD SWAP1 POP DUP2 DUP2 SUB PUSH0 DUP4 ADD MSTORE PUSH2 0x516 DUP2 PUSH2 0x4DD JUMP JUMPDEST SWAP1 POP SWAP2 SWAP1 POP JUMP JUMPDEST PUSH32 0x496E73756666696369656E742045746865722073656E74000000000000000000 PUSH0 DUP3 ADD MSTORE POP JUMP JUMPDEST PUSH0 PUSH2 0x551 PUSH1 0x17 DUP4 PUSH2 0x4A5 JUMP JUMPDEST SWAP2 POP PUSH2 0x55C DUP3 PUSH2 0x51D JUMP JUMPDEST PUSH1 0x20 DUP3 ADD SWAP1 POP SWAP2 SWAP1 POP JUMP JUMPDEST PUSH0 PUSH1 0x20 DUP3 ADD SWAP1 POP DUP2 DUP2 SUB PUSH0 DUP4 ADD MSTORE PUSH2 0x57E DUP2 PUSH2 0x545 JUMP JUMPDEST SWAP1 POP SWAP2 SWAP1 POP JUMP JUMPDEST PUSH0 PUSH1 0x40 DUP3 ADD SWAP1 POP PUSH2 0x598 PUSH0 DUP4 ADD DUP6 PUSH2 0x3A6 JUMP JUMPDEST PUSH2 0x5A5 PUSH1 0x20 DUP4 ADD DUP5 PUSH2 0x3A6 JUMP JUMPDEST SWAP4 SWAP3 POP POP POP JUMP INVALID PUSH1 0x80 PUSH1 0x40 MSTORE PUSH1 0x40 MLOAD PUSH2 0xA56 CODESIZE SUB DUP1 PUSH2 0xA56 DUP4 CODECOPY DUP2 DUP2 ADD PUSH1 0x40 MSTORE DUP2 ADD SWAP1 PUSH2 0x25 SWAP2 SWAP1 PUSH2 0x130 JUMP JUMPDEST DUP2 PUSH0 DUP1 PUSH2 0x100 EXP DUP2 SLOAD DUP2 PUSH20 0xFFFFFFFFFFFFFFFFFFFFFFFFFFFFFFFFFFFFFFFF MUL NOT AND SWAP1 DUP4 PUSH20 0xFFFFFFFFFFFFFFFFFFFFFFFFFFFFFFFFFFFFFFFF AND MUL OR SWAP1 SSTORE POP DUP1 PUSH1 0x1 PUSH0 PUSH2 0x100 EXP DUP2 SLOAD DUP2 PUSH20 0xFFFFFFFFFFFFFFFFFFFFFFFFFFFFFFFFFFFFFFFF MUL NOT AND SWAP1 DUP4 PUSH20 0xFFFFFFFFFFFFFFFFFFFFFFFFFFFFFFFFFFFFFFFF AND MUL OR SWAP1 SSTORE POP CALLVALUE PUSH1 0x2 DUP2 SWAP1 SSTORE POP PUSH0 PUSH1 0x3 PUSH0 PUSH2 0x100 EXP DUP2 SLOAD DUP2 PUSH1 0xFF MUL NOT AND SWAP1 DUP4 ISZERO ISZERO MUL OR SWAP1 SSTORE POP TIMESTAMP PUSH1 0x4 DUP2 SWAP1 SSTORE POP POP POP PUSH2 0x16E JUMP JUMPDEST PUSH0 DUP1 REVERT JUMPDEST PUSH0 PUSH20 0xFFFFFFFFFFFFFFFFFFFFFFFFFFFFFFFFFFFFFFFF DUP3 AND SWAP1 POP SWAP2 SWAP1 POP JUMP JUMPDEST PUSH0 PUSH2 0xFF DUP3 PUSH2 0xD6 JUMP JUMPDEST SWAP1 POP SWAP2 SWAP1 POP JUMP JUMPDEST PUSH2 0x10F DUP2 PUSH2 0xF5 JUMP JUMPDEST DUP2 EQ PUSH2 0x119 JUMPI PUSH0 DUP1 REVERT JUMPDEST POP JUMP JUMPDEST PUSH0 DUP2 MLOAD SWAP1 POP PUSH2 0x12A DUP2 PUSH2 0x106 JUMP JUMPDEST SWAP3 SWAP2 POP POP JUMP JUMPDEST PUSH0 DUP1 PUSH1 0x40 DUP4 DUP6 SUB SLT ISZERO PUSH2 0x146 JUMPI PUSH2 0x145 PUSH2 0xD2 JUMP JUMPDEST JUMPDEST PUSH0 PUSH2 0x153 DUP6 DUP3 DUP7 ADD PUSH2 0x11C JUMP JUMPDEST SWAP3 POP POP PUSH1 0x20 PUSH2 0x164 DUP6 DUP3 DUP7 ADD PUSH2 0x11C JUMP JUMPDEST SWAP2 POP POP SWAP3 POP SWAP3 SWAP1 POP JUMP JUMPDEST PUSH2 0x8DB DUP1 PUSH2 0x17B PUSH0 CODECOPY PUSH0 RETURN INVALID PUSH1 0x80 PUSH1 0x40 MSTORE PUSH1 0x4 CALLDATASIZE LT PUSH2 0x7A JUMPI PUSH0 CALLDATALOAD PUSH1 0xE0 SHR DUP1 PUSH4 0xAA8C217C GT PUSH2 0x4D JUMPI DUP1 PUSH4 0xAA8C217C EQ PUSH2 0x117 JUMPI DUP1 PUSH4 0xB46300EC EQ PUSH2 0x141 JUMPI DUP1 PUSH4 0xB80777EA EQ PUSH2 0x14B JUMPI DUP1 PUSH4 0xF7260D3E EQ PUSH2 0x175 JUMPI PUSH2 0x7A JUMP JUMPDEST DUP1 PUSH4 0x3CBE8363 EQ PUSH2 0x7E JUMPI DUP1 PUSH4 0x3CCFD60B EQ PUSH2 0xAD JUMPI DUP1 PUSH4 0x481C6A75 EQ PUSH2 0xC3 JUMPI DUP1 PUSH4 0x522E1177 EQ PUSH2 0xED JUMPI JUMPDEST PUSH0 DUP1 REVERT JUMPDEST CALLVALUE DUP1 ISZERO PUSH2 0x89 JUMPI PUSH0 DUP1 REVERT JUMPDEST POP PUSH2 0x92 PUSH2 0x19F JUMP JUMPDEST PUSH1 0x40 MLOAD PUSH2 0xA4 SWAP7 SWAP6 SWAP5 SWAP4 SWAP3 SWAP2 SWAP1 PUSH2 0x6B2 JUMP JUMPDEST PUSH1 0x40 MLOAD DUP1 SWAP2 SUB SWAP1 RETURN JUMPDEST CALLVALUE DUP1 ISZERO PUSH2 0xB8 JUMPI PUSH0 DUP1 REVERT JUMPDEST POP PUSH2 0xC1 PUSH2 0x211 JUMP JUMPDEST STOP JUMPDEST CALLVALUE DUP1 ISZERO PUSH2 0xCE JUMPI PUSH0 DUP1 REVERT JUMPDEST POP PUSH2 0xD7 PUSH2 0x3F4 JUMP JUMPDEST PUSH1 0x40 MLOAD PUSH2 0xE4 SWAP2 SWAP1 PUSH2 0x711 JUMP JUMPDEST PUSH1 0x40 MLOAD DUP1 SWAP2 SUB SWAP1 RETURN JUMPDEST CALLVALUE DUP1 ISZERO PUSH2 0xF8 JUMPI PUSH0 DUP1 REVERT JUMPDEST POP PUSH2 0x101 PUSH2 0x417 JUMP JUMPDEST PUSH1 0x40 MLOAD PUSH2 0x10E SWAP2 SWAP1 PUSH2 0x72A JUMP JUMPDEST PUSH1 0x40 MLOAD DUP1 SWAP2 SUB SWAP1 RETURN JUMPDEST CALLVALUE DUP1 ISZERO PUSH2 0x122 JUMPI PUSH0 DUP1 REVERT JUMPDEST POP PUSH2 0x12B PUSH2 0x429 JUMP JUMPDEST PUSH1 0x40 MLOAD PUSH2 0x138 SWAP2 SWAP1 PUSH2 0x743 JUMP JUMPDEST PUSH1 0x40 MLOAD DUP1 SWAP2 SUB SWAP1 RETURN JUMPDEST PUSH2 0x149 PUSH2 0x42F JUMP JUMPDEST STOP JUMPDEST CALLVALUE DUP1 ISZERO PUSH2 0x156 JUMPI PUSH0 DUP1 REVERT JUMPDEST POP PUSH2 0x15F PUSH2 0x616 JUMP JUMPDEST PUSH1 0x40 MLOAD PUSH2 0x16C SWAP2 SWAP1 PUSH2 0x743 JUMP JUMPDEST PUSH1 0x40 MLOAD DUP1 SWAP2 SUB SWAP1 RETURN JUMPDEST CALLVALUE DUP1 ISZERO PUSH2 0x180 JUMPI PUSH0 DUP1 REVERT JUMPDEST POP PUSH2 0x189 PUSH2 0x61C JUMP JUMPDEST PUSH1 0x40 MLOAD PUSH2 0x196 SWAP2 SWAP1 PUSH2 0x711 JUMP JUMPDEST PUSH1 0x40 MLOAD DUP1 SWAP2 SUB SWAP1 RETURN JUMPDEST PUSH0 DUP1 PUSH0 DUP1 PUSH0 DUP1 PUSH0 DUP1 SLOAD SWAP1 PUSH2 0x100 EXP SWAP1 DIV PUSH20 0xFFFFFFFFFFFFFFFFFFFFFFFFFFFFFFFFFFFFFFFF AND PUSH1 0x1 PUSH0 SWAP1 SLOAD SWAP1 PUSH2 0x100 EXP SWAP1 DIV PUSH20 0xFFFFFFFFFFFFFFFFFFFFFFFFFFFFFFFFFFFFFFFF AND PUSH1 0x2 SLOAD PUSH1 0x3 PUSH0 SWAP1 SLOAD SWAP1 PUSH2 0x100 EXP SWAP1 DIV PUSH1 0xFF AND PUSH1 0x4 SLOAD SELFBALANCE SWAP6 POP SWAP6 POP SWAP6 POP SWAP6 POP SWAP6 POP SWAP6 POP SWAP1 SWAP2 SWAP3 SWAP4 SWAP5 SWAP6 JUMP JUMPDEST PUSH0 DUP1 SLOAD SWAP1 PUSH2 0x100 EXP SWAP1 DIV PUSH20 0xFFFFFFFFFFFFFFFFFFFFFFFFFFFFFFFFFFFFFFFF AND PUSH20 0xFFFFFFFFFFFFFFFFFFFFFFFFFFFFFFFFFFFFFFFF AND CALLER PUSH20 0xFFFFFFFFFFFFFFFFFFFFFFFFFFFFFFFFFFFFFFFF AND EQ PUSH2 0x267 JUMPI PUSH0 DUP1 REVERT JUMPDEST PUSH1 0x3 PUSH0 SWAP1 SLOAD SWAP1 PUSH2 0x100 EXP SWAP1 DIV PUSH1 0xFF AND ISZERO PUSH2 0x2B6 JUMPI PUSH1 0x40 MLOAD PUSH32 0x8C379A000000000000000000000000000000000000000000000000000000000 DUP2 MSTORE PUSH1 0x4 ADD PUSH2 0x2AD SWAP1 PUSH2 0x7B6 JUMP JUMPDEST PUSH1 0x40 MLOAD DUP1 SWAP2 SUB SWAP1 REVERT JUMPDEST PUSH0 SELFBALANCE GT PUSH2 0x2F8 JUMPI PUSH1 0x40 MLOAD PUSH32 0x8C379A000000000000000000000000000000000000000000000000000000000 DUP2 MSTORE PUSH1 0x4 ADD PUSH2 0x2EF SWAP1 PUSH2 0x844 JUMP JUMPDEST PUSH1 0x40 MLOAD DUP1 SWAP2 SUB SWAP1 REVERT JUMPDEST PUSH0 DUP1 SLOAD SWAP1 PUSH2 0x100 EXP SWAP1 DIV PUSH20 0xFFFFFFFFFFFFFFFFFFFFFFFFFFFFFFFFFFFFFFFF AND PUSH20 0xFFFFFFFFFFFFFFFFFFFFFFFFFFFFFFFFFFFFFFFF AND PUSH2 0x8FC SELFBALANCE SWAP1 DUP2 ISZERO MUL SWAP1 PUSH1 0x40 MLOAD PUSH0 PUSH1 0x40 MLOAD DUP1 DUP4 SUB DUP2 DUP6 DUP9 DUP9 CALL SWAP4 POP POP POP POP ISZERO DUP1 ISZERO PUSH2 0x35A JUMPI RETURNDATASIZE PUSH0 DUP1 RETURNDATACOPY RETURNDATASIZE PUSH0 REVERT JUMPDEST POP PUSH1 0x1 PUSH1 0x3 PUSH0 PUSH2 0x100 EXP DUP2 SLOAD DUP2 PUSH1 0xFF MUL NOT AND SWAP1 DUP4 ISZERO ISZERO MUL OR SWAP1 SSTORE POP PUSH32 0x394C4E679790FAB24FD86614FD812811C9C835E4C475BDFC3D26FD0D6F7CA6FD PUSH0 DUP1 SLOAD SWAP1 PUSH2 0x100 EXP SWAP1 DIV PUSH20 0xFFFFFFFFFFFFFFFFFFFFFFFFFFFFFFFFFFFFFFFF AND PUSH0 DUP1 SLOAD SWAP1 PUSH2 0x100 EXP SWAP1 DIV PUSH20 0xFFFFFFFFFFFFFFFFFFFFFFFFFFFFFFFFFFFFFFFF AND PUSH1 0x2 SLOAD TIMESTAMP PUSH1 0x40 MLOAD PUSH2 0x3EA SWAP5 SWAP4 SWAP3 SWAP2 SWAP1 PUSH2 0x862 JUMP JUMPDEST PUSH1 0x40 MLOAD DUP1 SWAP2 SUB SWAP1 LOG1 JUMP JUMPDEST PUSH0 DUP1 SLOAD SWAP1 PUSH2 0x100 EXP SWAP1 DIV PUSH20 0xFFFFFFFFFFFFFFFFFFFFFFFFFFFFFFFFFFFFFFFF AND DUP2 JUMP JUMPDEST PUSH1 0x3 PUSH0 SWAP1 SLOAD SWAP1 PUSH2 0x100 EXP SWAP1 DIV PUSH1 0xFF AND DUP2 JUMP JUMPDEST PUSH1 0x2 SLOAD DUP2 JUMP JUMPDEST PUSH0 DUP1 SLOAD SWAP1 PUSH2 0x100 EXP SWAP1 DIV PUSH20 0xFFFFFFFFFFFFFFFFFFFFFFFFFFFFFFFFFFFFFFFF AND PUSH20 0xFFFFFFFFFFFFFFFFFFFFFFFFFFFFFFFFFFFFFFFF AND CALLER PUSH20 0xFFFFFFFFFFFFFFFFFFFFFFFFFFFFFFFFFFFFFFFF AND EQ PUSH2 0x485 JUMPI PUSH0 DUP1 REVERT JUMPDEST PUSH1 0x3 PUSH0 SWAP1 SLOAD SWAP1 PUSH2 0x100 EXP SWAP1 DIV PUSH1 0xFF AND ISZERO PUSH2 0x4D4 JUMPI PUSH1 0x40 MLOAD PUSH32 0x8C379A000000000000000000000000000000000000000000000000000000000 DUP2 MSTORE PUSH1 0x4 ADD PUSH2 0x4CB SWAP1 PUSH2 0x7B6 JUMP JUMPDEST PUSH1 0x40 MLOAD DUP1 SWAP2 SUB SWAP1 REVERT JUMPDEST PUSH0 SELFBALANCE GT PUSH2 0x516 JUMPI PUSH1 0x40 MLOAD PUSH32 0x8C379A000000000000000000000000000000000000000000000000000000000 DUP2 MSTORE PUSH1 0x4 ADD PUSH2 0x50D SWAP1 PUSH2 0x844 JUMP JUMPDEST PUSH1 0x40 MLOAD DUP1 SWAP2 SUB SWAP1 REVERT JUMPDEST PUSH1 0x1 PUSH0 SWAP1 SLOAD SWAP1 PUSH2 0x100 EXP SWAP1 DIV PUSH20 0xFFFFFFFFFFFFFFFFFFFFFFFFFFFFFFFFFFFFFFFF AND PUSH20 0xFFFFFFFFFFFFFFFFFFFFFFFFFFFFFFFFFFFFFFFF AND PUSH2 0x8FC SELFBALANCE SWAP1 DUP2 ISZERO MUL SWAP1 PUSH1 0x40 MLOAD PUSH0 PUSH1 0x40 MLOAD DUP1 DUP4 SUB DUP2 DUP6 DUP9 DUP9 CALL SWAP4 POP POP POP POP ISZERO DUP1 ISZERO PUSH2 0x57A JUMPI RETURNDATASIZE PUSH0 DUP1 RETURNDATACOPY RETURNDATASIZE PUSH0 REVERT JUMPDEST POP PUSH1 0x1 PUSH1 0x3 PUSH0 PUSH2 0x100 EXP DUP2 SLOAD DUP2 PUSH1 0xFF MUL NOT AND SWAP1 DUP4 ISZERO ISZERO MUL OR SWAP1 SSTORE POP PUSH32 0x394C4E679790FAB24FD86614FD812811C9C835E4C475BDFC3D26FD0D6F7CA6FD PUSH0 DUP1 SLOAD SWAP1 PUSH2 0x100 EXP SWAP1 DIV PUSH20 0xFFFFFFFFFFFFFFFFFFFFFFFFFFFFFFFFFFFFFFFF AND PUSH1 0x1 PUSH0 SWAP1 SLOAD SWAP1 PUSH2 0x100 EXP SWAP1 DIV PUSH20 0xFFFFFFFFFFFFFFFFFFFFFFFFFFFFFFFFFFFFFFFF AND PUSH1 0x2 SLOAD TIMESTAMP PUSH1 0x40 MLOAD PUSH2 0x60C SWAP5 SWAP4 SWAP3 SWAP2 SWAP1 PUSH2 0x862 JUMP JUMPDEST PUSH1 0x40 MLOAD DUP1 SWAP2 SUB SWAP1 LOG1 JUMP JUMPDEST PUSH1 0x4 SLOAD DUP2 JUMP JUMPDEST PUSH1 0x1 PUSH0 SWAP1 SLOAD SWAP1 PUSH2 0x100 EXP SWAP1 DIV PUSH20 0xFFFFFFFFFFFFFFFFFFFFFFFFFFFFFFFFFFFFFFFF AND DUP2 JUMP JUMPDEST PUSH0 PUSH20 0xFFFFFFFFFFFFFFFFFFFFFFFFFFFFFFFFFFFFFFFF DUP3 AND SWAP1 POP SWAP2 SWAP1 POP JUMP JUMPDEST PUSH0 PUSH2 0x66A DUP3 PUSH2 0x641 JUMP JUMPDEST SWAP1 POP SWAP2 SWAP1 POP JUMP JUMPDEST PUSH2 0x67A DUP2 PUSH2 0x660 JUMP JUMPDEST DUP3 MSTORE POP POP JUMP JUMPDEST PUSH0 DUP2 SWAP1 POP SWAP2 SWAP1 POP JUMP JUMPDEST PUSH2 0x692 DUP2 PUSH2 0x680 JUMP JUMPDEST DUP3 MSTORE POP POP JUMP JUMPDEST PUSH0 DUP2 ISZERO ISZERO SWAP1 POP SWAP2 SWAP1 POP JUMP JUMPDEST PUSH2 0x6AC DUP2 PUSH2 0x698 JUMP JUMPDEST DUP3 MSTORE POP POP JUMP JUMPDEST PUSH0 PUSH1 0xC0 DUP3 ADD SWAP1 POP PUSH2 0x6C5 PUSH0 DUP4 ADD DUP10 PUSH2 0x671 JUMP JUMPDEST PUSH2 0x6D2 PUSH1 0x20 DUP4 ADD DUP9 PUSH2 0x671 JUMP JUMPDEST PUSH2 0x6DF PUSH1 0x40 DUP4 ADD DUP8 PUSH2 0x689 JUMP JUMPDEST PUSH2 0x6EC PUSH1 0x60 DUP4 ADD DUP7 PUSH2 0x6A3 JUMP JUMPDEST PUSH2 0x6F9 PUSH1 0x80 DUP4 ADD DUP6 PUSH2 0x689 JUMP JUMPDEST PUSH2 0x706 PUSH1 0xA0 DUP4 ADD DUP5 PUSH2 0x689 JUMP JUMPDEST SWAP8 SWAP7 POP POP POP POP POP POP POP JUMP JUMPDEST PUSH0 PUSH1 0x20 DUP3 ADD SWAP1 POP PUSH2 0x724 PUSH0 DUP4 ADD DUP5 PUSH2 0x671 JUMP JUMPDEST SWAP3 SWAP2 POP POP JUMP JUMPDEST PUSH0 PUSH1 0x20 DUP3 ADD SWAP1 POP PUSH2 0x73D PUSH0 DUP4 ADD DUP5 PUSH2 0x6A3 JUMP JUMPDEST SWAP3 SWAP2 POP POP JUMP JUMPDEST PUSH0 PUSH1 0x20 DUP3 ADD SWAP1 POP PUSH2 0x756 PUSH0 DUP4 ADD DUP5 PUSH2 0x689 JUMP JUMPDEST SWAP3 SWAP2 POP POP JUMP JUMPDEST PUSH0 DUP3 DUP3 MSTORE PUSH1 0x20 DUP3 ADD SWAP1 POP SWAP3 SWAP2 POP POP JUMP JUMPDEST PUSH32 0x5472616E73616374696F6E20616C726561647920636F6D706C65746564000000 PUSH0 DUP3 ADD MSTORE POP JUMP JUMPDEST PUSH0 PUSH2 0x7A0 PUSH1 0x1D DUP4 PUSH2 0x75C JUMP JUMPDEST SWAP2 POP PUSH2 0x7AB DUP3 PUSH2 0x76C JUMP JUMPDEST PUSH1 0x20 DUP3 ADD SWAP1 POP SWAP2 SWAP1 POP JUMP JUMPDEST PUSH0 PUSH1 0x20 DUP3 ADD SWAP1 POP DUP2 DUP2 SUB PUSH0 DUP4 ADD MSTORE PUSH2 0x7CD DUP2 PUSH2 0x794 JUMP JUMPDEST SWAP1 POP SWAP2 SWAP1 POP JUMP JUMPDEST PUSH32 0x54686520436F6E747261637420446F65736E2774206B65657020616E79206D6F PUSH0 DUP3 ADD MSTORE PUSH32 0x6E65790000000000000000000000000000000000000000000000000000000000 PUSH1 0x20 DUP3 ADD MSTORE POP JUMP JUMPDEST PUSH0 PUSH2 0x82E PUSH1 0x23 DUP4 PUSH2 0x75C JUMP JUMPDEST SWAP2 POP PUSH2 0x839 DUP3 PUSH2 0x7D4 JUMP JUMPDEST PUSH1 0x40 DUP3 ADD SWAP1 POP SWAP2 SWAP1 POP JUMP JUMPDEST PUSH0 PUSH1 0x20 DUP3 ADD SWAP1 POP DUP2 DUP2 SUB PUSH0 DUP4 ADD MSTORE PUSH2 0x85B DUP2 PUSH2 0x822 JUMP JUMPDEST SWAP1 POP SWAP2 SWAP1 POP JUMP JUMPDEST PUSH0 PUSH1 0x80 DUP3 ADD SWAP1 POP PUSH2 0x875 PUSH0 DUP4 ADD DUP8 PUSH2 0x671 JUMP JUMPDEST PUSH2 0x882 PUSH1 0x20 DUP4 ADD DUP7 PUSH2 0x671 JUMP JUMPDEST PUSH2 0x88F PUSH1 0x40 DUP4 ADD DUP6 PUSH2 0x689 JUMP JUMPDEST PUSH2 0x89C PUSH1 0x60 DUP4 ADD DUP5 PUSH2 0x689 JUMP JUMPDEST SWAP6 SWAP5 POP POP POP POP POP JUMP INVALID LOG2 PUSH5 0x6970667358 0x22 SLT KECCAK256 0xB0 SDIV PUSH6 0x29BE2CB6F2A3 SWAP14 EQ SLOAD DELEGATECALL PUSH22 0xA2D25172DC411BE4AAC553CF1C83E24E2CB064736F6C PUSH4 0x43000818 STOP CALLER LOG2 PUSH5 0x6970667358 0x22 SLT KECCAK256 PUSH21 0xD81AB3D23D8F17DA1A6A94ABF1641285FF47752C69 STATICCALL MULMOD 0xCF 0xC5 0xB9 SELFDESTRUCT BASEFEE 0xEA 0xCF JUMP PUSH5 0x736F6C6343 STOP ADDMOD XOR STOP CALLER "},"gasEstimates":{"creation":{"codeDepositCost":"830400","executionCost":"862","totalCost":"831262"},"external":{"createTransaction(uint256,address)":"infinite","deployedTransactions(uint256)":"4943","getDeployedTransactions()":"infinite"}},"methodIdentifiers":{"createTransaction(uint256,address)":"7cf4c543","deployedTransactions(uint256)":"e17036f4","getDeployedTransactions()":"f4d79e6c"}},"storageLayout":{"storage":[{"astId":4,"contract":"Transaction.sol:TransactionFactory","label":"deployedTransactions","offset":0,"slot":"0","type":"t_array(t_address)dyn_storage"}],"types":{"t_address":{"encoding":"inplace","label":"address","numberOfBytes":"20"},"t_array(t_address)dyn_storage":{"base":"t_address","encoding":"dynamic_array","label":"address[]","numberOfBytes":"32"}}},"userdoc":{"kind":"user","methods":{},"version":1}}